:0200000470A0EA
:200000004D4D4C5001000000080015002A00500180004000050020001428030000000000ED
:200020000000000000000000000000000000000000000000000000000000000000000000C0
:20004000636F6D655F686572650000000000000000000000000000000000000000000000F9
:20006000676F5F617761790000000000000000000000000000000000000000000000000099
:20008000726967687400000000000000000000000000000000000000000000000000000042
:2000A0006C6566740000000000000000000000000000000000000000000000000000000095
:2000C0006E6F6E650000000000000000000000000000000000000000000000000000000070
:2000E000000000000000000000000000000000000000000000000000000000000000000000
:200100000000000000000000000000000000000000000000000000000000000000000000DF
:200120000000000000000000000000000000000000000000000000000000000000000000BF
:2001400031C88C3D9815BF3D44E7193D233CBF3D4C2D053D3A9A9A3C7B2B97BC8B7AC9BA72
:200160000606813BBD0356BDBE1E8FBC2F89B23D058E303EB0774F3DFF214B3EC6E1773D5E
:20018000A2B94B3EA9D9E93D138A1EBE9AEC473B55B67E3D465708BD84CA0A3E3BFF883D95
:2001A000E270013E0DA3283D5ADE62BEECF3F0BDC2D048BD184B17BEAD829E3D3B0879BD63
:2001C000DBA9023E93572F3D2FFB79BE04E913BE3CC656BE33E528BEF2DD26BE5B191DBED0
:2001E000E1AC68BD851FC4BDEC994F3DB4B8033D72693F3CD51DA33DFABEABBC4B82FA3D20
:2002000095F44BBD42FBEA3C937A29BEE22C803D4F3C6FBEA3EF793E33648C3CCC9B163E10
:20022000913BB83D0A5E3D3D2F5CE53D1961B1BC4A1565BEC602C73DA96AC23CD6FC7F3D9A
:20024000E6D7033E41C27E3C8674283E38CA79BD27D481BE5F2C6B3DD65635B8E102383D6D
:200260007CE2F03DAF1F8ABD2B4B683DDAA6DBBD88BA5ABE30169F3D153727BE7EBCC1BB48
:2002800085C2F6BDDD1400BE89D93B3DCE0813BE7062913D6BCD48BD47616B3C0C6D81BE50
:2002A0005C88B9BD029944BE4A4CAEBD70E079BE39FE05BED28624BE89414CBEAE558D3DEA
:2002C0005B79733CD077733DC3F08FBB7F6805BD0E226DBC7463EF3C335236BE807DC63C2B
:2002E0006F9BA6BCD6D2033DBE4A803C23B2AABB19A3E03CC27882BC2A9F9ABDE7B13C3D2B
:20030000BE464FBDBA07E5BC6CA38B3A99788DBB5646C73D4F053EBD43B9B6BD0F73F9BCA9
:20032000AB2505BE412EB8BDFBFB33BD8805AABD95013B3CCD56B6BD1C0473BC75ACEEBDAE
:2003400003802EBE5815A43D5F6F2EBEE972BEBBC75C8CBECE34F2BD6A4E8FBECD2A4CBE2E
:200360003E04B3BE50A24DBDC0B633BE69CE013D98E101BE8C4A923C2E30D7BD3C4E423D1B
:20038000A55E92BE936E83BDA07DA5BDC15D6E3D5273F33A5E59063DCFDE02BD6A46A33D99
:2003A0004D46DFBD0DBC1FBE7B37663C468602BDAFAC2E3DA0ABE53D57BD093DA78CC33DC9
:2003C0002AB0D53DDD69D2BD35E5A23D8A53DCBDC86D2A3E43BBC43C1A413A3E6639C03DE3
:2003E000F8F1153EC0A0773DD3AE32BEB690343EDE96D6BDDD378BBDCFB13ABE11CF53BEB8
:20040000E55E6FBE1CB13DBE704739BE67DCC0BDEE87E4BDB7D795BC729399BD90CEBC3B91
:2004200049E75EBD6704F93DAC513EBE180406BE191964BD8FFC65BD1F5DE33985063F3D58
:20044000A4C7273B574B053EEC28B2BD0DA33CBE4EF4C13C45589ABDFFCD863DB8AEB23DA6
:200460005A8475BD5A14813D27C4513D998321BE89775D3D6E091FBE49CE963D472F37BD8A
:20048000C474F43DBF250A3D142B0A3E6AF7B93BB8F037BEB81A913E804DE3BD3F4D103E67
:2004A000311CBBBD7AAC28BDB6B4B8BD44EB94BCC08681BE446FD33D80C5B1BD2CECAABC95
:2004C00096BB22BDEA4F073D34188E3DD4CF9B3D202694BE1C9786BD3B5F14BD6A3B34BD4E
:2004E000861CE53D351B283DD57EB53DFC312C3D5AFB3EBE9285D9BD1986C6BC7E5439BEC0
:200500003874DE3D70149ABD38DD233D410C83BDB175CDBD6BF600BE0B73F5BC0F301CBE20
:200520009C40393D056098BD79239A3DB03F1EBE04541B3DDEC1EABD869883BD9E5E43BC22
:2005400099410A3B49144E3C0E116FBB8CE84B3DC6D23DBC14DA293C99E6F3BD6C1CEF3D89
:20056000BF7C333D639F103EF7BDED3D73C51B3DC82F103E5B6C333A0B1659BEF85A233DAF
:2005800054BC633DE20C5F3D86B4343E2D9AF3BB4A8FD33DD0838A3C708886BEB16A32B9BC
:2005A0006E1F9ABD5D8863BDF0E76D3DF5179DBD52809D3DD218D6BDC8E1ACBEE1B5873DD5
:2005C000125D23BE490BB9BD7513FCBD7B8426BE95E1D4BD4A968BBE602D343DE069B5BAF7
:2005E0006CC201BEAFF1973DDA0E87BD21619D3C61EB53BBCE2D31BD412CC5BC97422BBD21
:20060000904C5FBE8ED9FE3D4C137BBC041C8C3DE72AD83D1EA48ABCBB02823EA8A48CBC81
:2006200032E090BED4906D3DB284473D39B7243B5C0D2E3ECC92BA3C449D6A3E42FE55BC40
:20064000B2E49FBECB5331BD152778BD383C3DBD341B933C58CCD1BD7017C43DD1B4D0BD52
:20066000490F9ABE3C1214BEB54445BE73B03EBE460148BE852395BE18C794BDC9B1A5BE3A
:200680006FFD68BD044E4DBDD592C7BD61D2B6BD548B9CBDC5B496BB1C02B9BDABF735BCB3
:2006A000EDB289BD5843C4BB49D5213ABB2A123EB6F1FFB7F051353D2A34813D143F973B3C
:2006C000F03BD43D536DAD3C50C594BD4005573E0169993D5D586C3BE37040BDC681D73CAF
:2006E0008D198BBD1FD3D73A179D20BDCF4A3F3EF3A93D3DD2C6773C4300B3BD23D541BDD8
:20070000B0E567BE804E273D1FF3BB3DBD65003EBBDF98BDB2CB0F3DA7E45FBE30A81D3BF3
:20072000DFEA8CBE1238B83DE14A8FBD589244BBF9D5A53D1188F2BD4AF68F3CB843B73D15
:200740006A99BCBC9617013E8560ACBDF561FB3CEEEEFEBBF848243EB4A16FBDD5F773BDA3
:2007600083DF0FBDA67F89BDC9BE83BD2ECDDCBDD56FEABDE984493E25CACEBD0576DBBD19
:2007800023C64EBEE13DA1BDB51283BECD9D77BDCDBEC2BD53B2C03D2A2559BE331409BEC2
:2007A000792DA0BE837FD7BD3C93BDBEC981D6BD9C93F3BC0CAC4E3D8AF419BEB0F5F1BDAF
:2007C0009204A0BEC075C9BD0A34D1BE32B70EBE1B89723DF2D48CBDB6B3B03D47D909BD4A
:2007E000AC551C3E1D4E04BD81F5AD3D12A34BBD15724E3D18D8C4BBA912D33DEBE79C3D5E
:2008000075B54B3D7185F7BC0AC6F23CF0A284BD6FCE5E3D36B68ABDCA97B13C47EB0E3ED5
:200820002C251D3BB04C83BDBA0BC63C6B52BBBD8A85813DDAF102BEB0E380BD3DDC323E26
:20084000AA428ABA60FF07BE05AC8CBD35FA1EBEA10FF3BDF0853EBDA3B59CBD4E16BC3D61
:2008600042B6FDBD38139B3BECC1CDBD5EC7A1BDA36AF1BD689DA63BA34281BD86D1D63DBD
:200880009FE0153DBDCB3DBECE4092BD680103BEEA04CA3C46581B3C22BFF0B9A12F063DF7
:2008A0004577A73DAB290E3EC0F8A13BD1BC323CD271F63C51ED7CBD7051883D8253313D34
:2008C000412BCC3D78D8403EDE23843D0BB14ABCDD2F153E0F885BBDA41C873EA9E1EC3C0C
:2008E0005096273EDE498F3E29EF1B3E2F03773C4474613ED851B53B7A5A823E91148F3DEE
:200900004182253EBB9B6C3E37FC123E932EBB3CE0B4583E8F6F133D2A5D963EDDF82D3E63
:200920003BFA0A3EB18FA9BDB52ADA3C99F617BDEABA233DEB559EBB6D79983DF66960BC69
:200940001082743D694C8CBCC6B94D3DA8492A3C1723063EBCF585BD6800113E964302BD37
:2009600099C1C83D66B5243D5340E83D3CD7D03DBEC4283E4B7008BE9B8E4F3E81F4C8BDAB
:20098000AFE6703E28AD26BD53A7253E5F62E63CBFD5273E04F355BDF9988D3ED8C5E3BD81
:2009A00094D17D3EC7B9D3BCB040E13DFA335E3D5D35273E8F09A0BD5178833E0E9775BDE5
:2009C0009744BF3E578C193C0F5CD83D24C382BDC4FDC63D66F2163D0AEA923C65DC6B3D47
:2009E000A9F5103BD841813D471B2FBDACAE2EBA900698BC6BE0EE3C068202BB4E3C703CCD
:200A0000EAA8B4BB6F49203D67F19CBD90AEA6BC32DFD9BD852513BDA46198BDFBD51CBE4A
:200A20002971BFBD2BE51ABEFA4E08BE2211A0BDB0AFDABD4EFFE6BC290F0C3D461343BE5A
:200A4000510B6FBD8FE3D9BD0B97DCBD767C9CBD324B60BDC36810BEAC6E27BC8161EDBD64
:200A6000389C333BF13DF4BD99902DBDECAF44BD93F199BD59BB953D069A38BC07B2A93DB3
:200A8000A634C1BD148EA43D7358B9BD2226433D3152B0BDBF5F0D3DB947D6BC74C6133EFD
:200AA000B7A748BDEDC9733D4E16C6BD705D43BC7A0CD7BDB64900BD25529FBD55241D3E3D
:200AC000755C3E3D5EA70739D28CEBBA2B15CFBD951F33BE879D2C3DBFE5CD3C6A5A123EC3
:200AE0009735383D66D6EBBD875557BDAADA6CBB208416BE2344E83C1E0C543C33B7863DCC
:200B00009C71943D7275A5BD4C6BB83CDF39A8BC478CB4BD924F5B3D252A21BE17E22FBEB6
:200B2000D74D74BD483CBABD47E69DBD893A06BD8A61BDBD11A2293CD074F2BD8FFD7A3BA7
:200B4000F3A362BC7C071E3E71E3C23D6FC18F3D06B7A3BCA2C0B1BC43FF4B3CD30ACD3C19
:200B6000EC8C1ABD4FB95E3E4974123EFCE1FBBC07A0F93DE94D3A3C2F38463CF5181B3E09
:200B800028B626BDB2D52B3EF5FDC33DC1A23A3D941CC13C6CDB433DE2585FBD3F19263E52
:200BA000C92ADEBCEF12003EAFE1883D9662B2BB775B4B3D7016DBBC4AEB8FBCE619143E67
:200BC00098DF573DC457FB3D1F658FBD7E06F2BD130F99BD347614BE1D9906BEEF41E1BD78
:200BE0006FF5C6BCA5BA57BD5339E2BD983C64BD81ABDABD6C49353C98AC0ABE26C5F7BDE8
:200C000052A103BE8418FDBD0244C0BD91BFC4BB7D98F2BDE6FB44BD9EC607BE6F3009BE03
:200C200033ECA4BD2564C5BD7CC227BE7FB33B3B07EABBBD2EF61EBE88C41BBE28A25FBEE9
:200C40008CA7C5BDD6B83BBE35CADDBD58FFA63C9DA730BE948001BD9C6F13BED24A91BD3C
:200C60002213C1BD514F21BE0D5E2FBED2CE893D4E466D3D08CA07BE5C874CBC49429FBDDD
:200C8000088EFFBC967D0ABDE827C53C90BF813CC618A03C449A8F3C526C3D3D1086DFBC41
:200CA0009491DABCC44586BD2DC0813D77A4B1BDE986BABCCB29E93CEE51123DF5F8083C3C
:200CC0006CAA09BDB8650BBE17C9233DBE2804BD771BBC3C0EA3533CA7A20B3D41859DBCF1
:200CE000F447133B7E900CBEC575CD3D963A07BE2CE093BDBBE6893DC0265D3D201B5C3CA4
:200D0000DDD78B3DB7E676BD11363D3E422CE5BD08ABDF3AC817473D3867463D9317B73DC6
:200D20006BC75E3D6C428C3D4AA7423DC480F73C382E493D6294003E1FD6053E3C88E7BBCA
:200D4000529F453DC4AF0D3E7E38053E4E8C643D8F2ECF3D30E9933C9891A53DC00DF13C38
:200D6000789E093DDC78AF3C4578023E1D4817BD55EE283E9F1721BD1AEB723D96B6513DD7
:200D800069F43F3DC6999DBDEC7B2A3EDA6C26BDC9F53B3E29ECE33CBD77DABCBE45B13DA3
:200DA000869BBF3DB6E182BC8E56453EB4B095BD9FD6543E49F936BDC820E5BD4AF0923D55
:200DC000E6E5123D5BEF903D47EE0D3CE2F87D3D6AA8913C5914ECBC8329B13D5E4D8A3DD0
:200DE000093AB53D902F03BD9D5D47BC5DFD843CB0B25A3D6E77CDBCD8B7BC3DA47D30BD2B
:200E00007568413DC3C9CB3CAA208ABC9DF345BDACFFBF3D8D2CA4BD1761B13D76D4F3BD21
:200E200094ECF9BCFC09B2BC1FAA753DC7D30DBEB5B5123E98E006BE7024673EEA5866BD96
:200E4000CC5CB4BDCF3AECBCE7977C3B5BDAD6BC30BAF43DEBFBC7BD648E823E509AE6BD88
:200E6000C566A9BCC86FBD3B92AAD0BD434F5FBEB2B0223CCEBE10BE966E843D531F11BE1B
:200E800075EDF53DC1F485BD9C1A903D103F29BA429A593C3AF67D3D0367963D78C4623CA0
:200EA0005F971C3E31AAD53B31D6033E2705E23D52A20A3E557E33BDA846633E1598A4BDC8
:200EC0008FF62F3EED75D43C9D84203E257CAE3DD085493E2DFB71BDAB52723E8181353C51
:200EE0004B93963E6363C73CF8FEF93DFBB2843DC7A4913E50F7353D58E0B23EEA8AADBCE5
:200F0000E35BC43EB2E7903C6AE332BDC55778BED91FD0BD78BC22BDED37D2BB1A17ADBDBA
:200F20009AA894BD7ED5B9BD342AF83B651BDEBD52AE23BC578F813DBFD05F3D8475E83DDD
:200F40003C128F3B07463E3D041BCA3C4E239E3D24D69D3D7092EC3D95DCA83D98EF723DB5
:200F600043F7233DBEA1A23DD6A092BC58AF1B3E35C4833D1A213A3D6DD0183D7EBFC93D35
:200F80001C15EA3DCDCFE33DDB500C3E4FC0283E3A379B3D0A56D53D72390B3E631D883D5F
:200FA000E8D8F23DAFD7AD3D06BB133E6733053E6E29DB3D29CC133EFC4390BDB4F78B3DEF
:200FC00051020EBDC21C553C4BC3EF3C7D3DC0BC1F645EBD7643B3BCD38E80BD292D673BB9
:200FE00033F8CDBDFFFF213E12F193BD1448143EA8E5FEBD86404C3EC946DEBDF377FFB97A
:20100000F4D137BE707CBB3DD9AF58BE03F9B43D8A7172BEB035863EE3A7F3BDF4A702BD3F
:201020003D1AD1BD313AA53DD20824BEC62B963D2C6D85BE263A623EE2DDCABCA2C34A3BF3
:2010400070BD00BE4BBC943D96951BBE6BE7A63D1FC12BBE0AAD483ECD07FEBB05CDABBBC9
:20106000548FD13C31FC813EBD886C3D27D9463E8AE1DC3CD771963D4FC6983D219A883D1A
:20108000B137EDBD63A9163C399F34BDFE78063EA4A3B9BD3E912B3DB03FBEBD09940A3E9A
:2010A000E33578BE449FB0BDA2EE6ABEC57F22BC588458BE6F21ACBB6D5388BE3814E53D5B
:2010C00056ED87BE659746BE56F469BEFAAAE2BD2A88A9BE9843AEBC3E82BFBEF16C733C2D
:2010E00078E874BE5F2633BE22B090BED3338EBD62F4AABE1ACCBCBD5F73BFBE2FE105BD39
:20110000A7900C3E76F7E1BD3D5CE6BBAEE3993C072684BD19DE883DEDC1473CDD5E013ECE
:201120002E2F32BD1B163E3E9914043EAFED43BD578F28BC65F5C8BC6352A3BD27D382BD35
:20114000BFBC0DBD30F0A83A3A04513E59B78DBDF760163E073A99BDFAD9AEBBDEE1DCBD4B
:20116000BD041FBEB9C0CDBDA2DA623EB211B53D6233323E0C2CE6BD36688CBD35F700BE4C
:2011800067BF81BEDCF45FBD02E1663E3302183EF13E6D3DEA3B433ADF24FFBD110F90BB47
:2011A0000ABB81BE1DEE73BD7561463CF21C33BEA401BFBBB384BB3C4AD99F3D935D403DE0
:2011C000C788D83C5F54443D25290ABDE744D03D661F763D644F443D0C04E83DCF501A3E13
:2011E00044FBF5BC7A56FB3D6FFE6ABDA132343EBD7C273E1789A93D337E243E8317823D8E
:20120000017070BCF9B4133D3FB20ABE7C87B63DC364B13DDDEA863D75C02E3DA97956BD11
:20122000CEFCE9BD0ACD87BDB93771BE10E545BDBBF4993D71280C3EBDA6323D7AC5F53C63
:20124000BD525CBEC35CCCBDB6E692BEE3D81B3CD0F14D3D0D478B3D0DA0303D5C56B33D9C
:201260004C4F5DBD7F47DB3D78D6A4BC2054033E7F1415BEB3A5403E8805AE3DB649383C51
:201280003F08533CCD52DC3D42C8C1BCABBED33D833DA2BD92631B3EF157083EA2738ABDE9
:2012A000FCFA8B3D0157323D20CC88BDF372DD3C2D0A1FBECAA6D53DD9F1263E9FDE0F3D6D
:2012C0002769ED3CB9C9C9BDF8CADABD63FF77BD3C3C1EBE88B09DBC62E69B3D4124033EB3
:2012E00027F97BBCB660C53C11A980BE1F66203DCE6D9ABE509929BDCF26B63D5616C9BD6A
:20130000082E1DBD0278C63DD4F190BDA42F8A3ADB0907BDFBA57D3DB93DA3BDD180A83D09
:201320000C53173E2E5529BD7322D33CD318CF3CAAFA833C0A2BE23D5C0EBEBD3EC7493ECE
:201340007FC96A3ED23B903CA7E2E93D14B38D3CF17A833D355A563D4F88E5BD5F2E023EF2
:2013600034C0653EF5A8313D1047503E81B6A1BBBF6AF1BC7E0A6C3CF1EA01BE23D22C3D55
:201380006191143E40C1F63C570AFE3D7F01E6BC92A3ECBC6A763EBD3FA68EBD187A9F3BC4
:2013A000C38257BD1CD2ED3B70D8063D2F921E3C4285D5BC8956ED3C780C92BD975DB8BC7D
:2013C000620170BD834DFE3C8808213EF821E43B49F6AB3D38581A3E18318ABCC9320E3E67
:2013E00038F730BBF0B8963DFF1B163E9E50913CDBE8D53DB46A0E3D8D28CF3B55B578BBF5
:201400003FBAEDBDD81A093DD480203EF3EA163E2247B83D32E639BDD8B7B8BA908516BDB9
:201420001524C3BD18845E3D1DCF2B3EC599D13DC324C83D558BB53DB317B3BDDC94103D46
:20144000105FF9BD0B22C7BBF71448BD2824F7BDBEE9CABD1D715E3DDDDCE8BC09DFDC3BF5
:20146000292885B90664AC3AFEBBAABC9E47EC3D13B90D3E7BAE333DC07CF23D11D8063E18
:20148000CFDE103DD44CD23DFF7784399D3D6A3DCB4FDD3D2AE9F23D0EF5F43D2F21B53D83
:2014A0009AB24ABD316265BC64BA03BEC91B783C4FBD053E59E5F83DE04CC63CAD75DBBC05
:2014C0006658D9BD88E34EBDC79660BE76714BBDB79F173D1AB0143EBAF7C6BBC169633D16
:2014E00095CFD9BD4D44ABBCF17739BE6E58B8BD03EBA13DD444173EA4EA9DBD9E9EFB3DCB
:20150000FBEA953D97F3213E1B82163B11C4023E3F0C14BD3CF7653D5438013E2E1DB63D2E
:201520003C28DC3D4832F53DAE996E3CC85BDA3DCFBE483DA91ACC3D9C41CF3DDEF5B13DCF
:20154000EAB9BE3D4B9983BC1CB8F2BB3E507EBDFA891CBEAAFA5C3D532D9C3DA87C623CCB
:20156000BF82D53DF228E1BCD4FF60BC348DAFBC8A5E18BE50DE6D3905FA583D7840173E13
:20158000E449BCBC72A15CBD1B0C99BDB55584BC038264BE9C94C2BB05BA463E805BA6BDDE
:2015A000626EEA3CE94F483EADC5D83D4A08803DD82C6C3D9875013D2A504CBCC9A2803D3F
:2015C000437EA53D4F16E1BA34A1C03D648BFFBC27672ABD8D7B5BBDAEA915BE95E90EBDE4
:2015E0001B5B51BDA0CF943C22E09A3C329C94BDF33019BE795214BEDC1B40BE0141A5BB03
:2016000083CE06BEA0B62D3D39BFA3BDA8AED8BD1F7F01BEE3076BBD7E4AA8BE306970BB51
:2016200042748FBD5B5D823D117914BD2092D8BD260660BEC134FDBD69F799BEE05833BDB7
:201640003383BCBC17D32ABC0E4AC2BDC691863E7EB37ABD5EA7B33D19E6A13CE39449BDE4
:20166000896B9D3DD9DC70BDB94783BB2CF7653EAF8AFC3CA797433ECD05033EB94CB23D7F
:2016800092AFDF3D2B12413D3FE8C7BD2DDB253E222DA13DA1059A3DCAFDBA3DBC09573D5B
:2016A000B7BC523E4FA18A3DA53052BD7D68C23D43160FBDEB593DBCFA71203D5426123DB5
:2016C0007437F33DC55B8BBCF3553E3B551583BDC974ADBB524638BED69EB83CE3212DBED3
:2016E0005F03D03DE4B70BBEA81CF7BD5B67F33DA92224BD2339273E4395FABCEF95853D6C
:2017000063AC613D6D9998BD2423683DF0FDB3BDDC0FDABC7F4C6F3E6E43B43BB8C4B33D73
:201720000CE7893D9ECC0A3AF6DA9A3D0973E7BC3A4789BDF455083E88D7153DB790F13D00
:20174000F6D2B33DFB1E993D1027163E4266D7B9EC6E12BDE5462E3DDE113DBD54CF303DE7
:20176000A101AEBB8936AD3B98B3AA3D8727C0BCF9C53EBD9B53F5BB173AB3BD3E4218BEED
:20178000CA658FBC4D0810BEB0AB2A3DFBA503BE71E28C3D96AA04BD6A1614BE7B1B9C3EAA
:2017A0000D6A13BE7649093EB3B931BE2BB127BDEFD58BBD7B3EE1BC0C0A2BBE78484E3E13
:2017C000D10385BD915A093EE638593C56422B3D9E789CBB5F9002BCCC51E4BCDC83EF3DAC
:2017E000A624D8BCB9FFCB3D1069BA3D05FE493DFECA183EC651AA3D3BF3643DD6263BBDF3
:20180000A44DB13C251F403DD04BB13DF5E894BABBE4043DE939C33C1142BC3D10400EBE8C
:201820006B2523BC1A2322BE9FD89A3D72BCB2BD45DD053EDBB093BC653CD33C34CEF3BC91
:2018400045A980BE3186A03E48636DBE1FEA163E0F8E16BE9524D43C51F6CABD1FAD1CBDE7
:20186000303C6ABE6550073E0ACA14BECCF5813DF0D411BD7104C43C035DF93CF6682B3C54
:2018800039CE24BEB8D38C3D20264FBD352F4C3D30C90D3D01841B3DD08F393DD5DF10BD56
:2018A000719ABBBDE43625BD698DAA3CCED5953D9004A03D6617283DC9D7713D0CFB14BDDF
:2018C000EDA0713DBEE731BEB9B3123D6FC55CBD1F03353DECC5093CB0CA073DCED1663CA8
:2018E000820ADB3C378B48BD25AD4CBE1745603EFCE10CBE8CB6993DAEBED2BD6FF877BD53
:201900002E22C9BD8E793DBDEEC134BE7348D73D6CCD9FBD2FC3973AD2892EBBE4E8C33C19
:2019200089A42A3D0B3B1BBD1789E9BD5DC6AC3C061D44BD09DB1E3D2334A23D3E763C3DDE
:20194000864FD33DAB1C1C3C32D8ADBD0F76BFBDBDF509BDF2B2703DCDD5803D6DC0D73DA5
:20196000DAAA483DAE58263CCAEBD73CA92B0FBECC7F80BD44E4E7BD73E1C1BCF23516BC6F
:201980005C23123DA302E0BBF4B5343E19DBD3BD09FD30BE6E87313E7F9A11BECAD3973DE9
:2019A000975B06BD0088E23C6C655D3C122B59BC68C561BE8E6D893D3365CFBDC807243DAF
:2019C000831BAC3CD0B2E1BA29F78D3D499325BCD35E77BEE99ADCBC6100D1BC1B86ED3987
:2019E000E767993D06FE1C3D57E3003E987415BD227046BEB7EAA1BD19B6EFBDE39749BD80
:201A0000C6B8163DFA5F04BC902DAB3D856BA3BD8D73A1BDEF860EBED703F8BD67DBFBBDBF
:201A20003B3BCDBC4B4C05BE9F92093D4F4908BE263C52BD7B9CAFBC73DA60BE9B01833EBD
:201A400016F841BECFF5263ECFAD15BE9D36133D9033A7BD9EB7983D88567DBE1004F83D2C
:201A6000C4F3ABBD8AA8783D76B5123D92E1FA3C8B102F3DF4F877BD4C523FBEE0D8E1BB27
:201A8000D3B47ABD7769803C75C7243E5B4DB93CA349093E81E0A4BC54BE2CBE25F80BBDDC
:201AA0001CB013BD975022BD810ABB3DD52A93BD41522A3E62993BBDC3A5E6BD000A5CBED5
:201AC000A86B06BEAAF005BE189294BDE2CA1ABED88F97BB431802BE363C9F3C361C003EA2
:201AE000FF3C51BEE4F4723E72764EBE29EBED3DE47C04BE7BB031BD878D7EBD638789BD28
:201B0000230484BE027EAE3DB3F416BE034DC13C0DB4363CC74724BDE183A83DA4B3ECBDBE
:201B200074B17BBE070E8B3C996681BDD08D4ABC13BA983DB599B2BCBA3D393ED80A33BD2D
:201B400019B097BEE43A52BD2CB31BBE41B801BDF1C4CF3CC4E2C1BD53C4493D14AACEBD01
:201B6000BDEA67BE608F56BED42C02BE85D44FBEAE8D93BD189E95BE2FAF0E3C422292BE00
:201B8000C47C71BDB200FA3C4DCBC4BDB883A8BD2DC79ABDB4B7363BDF8287BD538DF03CDE
:201BA000784ADB3B610EA23D46A3633C4244AC3DB4DC133E3AF5023E1E680A3E547043BC27
:201BC000E28B4F3E38BA173D0180C43DE4F5B23D0B29F03DFAA96B3D1E0C8A3ED165F8BCF3
:201BE00004EA953EC338833D850C193E66CD863D4B09363EA3100C3DF5D09A3E7D530F3D0E
:201C00002B549F3E4CD07A3D710E083EEC27BD3BDD4A3B3E003051BC0D529B3E10A443BDFC
:201C2000D76CBC3E83769E3C4B3503BEA5D3443D45D3C9BD98FEAFBD6BD03BBB0941E7BD9B
:201C40005A4BA73C3E4AC6BDA5FF283D85FE28BB491A6D3CCA025C3D4B31F73B7E6DAE3C8E
:201C6000F68B4F3D3DFE50BDAD53CD3C7689DC3B8277333D85E5D33D5231293CB476CB3CF4
:201C8000C6DEEC3D39CB41BC9721F33D34CF273D9EC96A3DB981923DB5E0DD3D373C423D6F
:201CA00013FFC73DB8DA0C3D8BB2373EF0D7643CD8B5F33D4EC1FF3A47C7103E1506723DEF
:201CC000F12D123E582074BD9A26523EED4427BDB6DF823D1B5AC4BC5F8882BDFE690E3E66
:201CE0006F3396BCE2B40C3EC703FD3B166B313D8DA191BC692EB53DC47CCFBB64E8F63CD3
:201D0000810EADBD8E1FCBBC42AA89BDDE5273BD19EF9F3CBECCFDBCD889CCBD90C6DFBA05
:201D20003060ACBDBA4145BD91540EBD86C242BDB72EC9BDB85ADABD4E5D95BDF222E3BDF1
:201D400047431CBED21CD9BC0CD388BD12EADDBDDE0558BDE6D4B5BD30DB17BDDF35DFBD2F
:201D6000197608BEC663D4BD85CE0DBD1A4CB6BDB42168BC63F3BCBDC2738B3CF88375BDED
:201D8000C218173CC8DE5D3DCF31F93C23EADA3C63BB5B3D7B3DC53DB0FD0E3E38F3053EA7
:201DA0001EFE1ABDF1B8883A639508BD46B5873D2000183C0825213DBFBBBE3D8B174D3DA9
:201DC000A610613C95E7A3BC88F5DC3C2365C4BD85143E3C925769BC1F7A843DC1F8E4BC63
:201DE000786201BDDCC8BEBD2B460F3CF133BBBDB716FC3B74044CBD3A71823D575725BD55
:201E000087F154BDB37368BDECEA04BD9BBDF3BD27DAC6BD8A76A3BD7329033C9AE868BDE9
:201E2000A5DD943D597E31BE2D0911BE8F9E18BE0E7A08BD275518BDBBCF203D8E0218BD97
:201E400019332C3D7A7CFEBD191D99BDC763953D0A73713D0B2E66BCF2B9053E40CA703D69
:201E6000641AA73D3B69953D3D601E3D63ED573D4038123EA7F54C3D7AA0233E4894FF3C2F
:201E8000241B313EEFFA313DE2D3163DCBCCFE3CA17EAF3D621EDDBAA8612F3EF6038ABB8E
:201EA0009ED9073EE7FEB53CAD8B123E7E74D83CCA8C193E1412B7BCC9B6E23D2620CEBC4E
:201EC0008C4F233E33A806BCE6385CBD566489BB03E784BE7E7E11BE884814BEA56522BE71
:201EE0003DD859BD9C610ABE087A573C33F418BE9F392FBD9503ABBC18F77DBDAC2964BCDF
:201F00007E9A1A3D221537BCFE5C0BBD85C52ABCD9A431BD5E9A793D80BA33BD519D28BDC0
:201F2000C14FEF3C2D82ACBD2F469BBD7486213DFC075A3D6D16003DA14A933D700B7ABD62
:201F40004FD6BDBC052A3CBD4EA0D3BCF54A513D10D7BE3DE061E13C29CF463D4720FEBC95
:201F60003CC8183DCD0AE63C92E4CBBD4CC9AD3B231196BDE389CCBC18D325BED075DBBDEE
:201F80001E16C5BBE1B2B3BD4DBDC33B343BD0BC39DD103D01D03BBDBDB30CBD3027E33DAB
:201FA000A55D81BD0336D83DC1E1ECBD0ED8273CE7587ABC9F194C3D0F0BFABD2AC7003E49
:201FC0003BB114BE9069D33C26C161BE94C2433DA9B88DBE0D65D83D6B7567BD4FC0DA3D02
:201FE000C70727BEC199313D554A80BE3A393D3D0851A3BEBA16D43DC5ACDDBD46D60C3E90
:2020000098662DBE3A2B9D3DC33B56BE20A1163D32DAB6BE25F8433D8CB8A5BD39CD86BC67
:2020200032B748BDA47A833D07366F3CC902033EE13DC63A39D8793DB5D7203D8551693D96
:202040001B54A5BD83C8253D57A508BE9828803C6E19C1BD1586B03C0941BBBD4C14893D50
:2020600044A3DDBDF3DBBC3C1A645FBEB5B72CBDE8D068BEAD469F3C93FA88BE82145B3D7C
:20208000CC7E3BBE768FBCBC73D460BEE87171BD5A7D9CBE570E44BDA008B7BE3509863DDF
:2020A000E1561EBEFFF4E6BC23ED54BEE3121BBD722FAFBE415C96BD3002CEBEE9412BBDBB
:2020C0001E584B3DD2D3B53D06B9BE3C0A39DDBD15CCA83C3E13083BCDD1503C3E5D2CBDCE
:2020E0009C76713C1BCF90BD813BDBBC1A146C3E95A30EBCD824FDBCEDD2E43CB61836BD68
:2021000035C63CBD1244E8BD956DD23CC0209C3EBAD2BABD2EB949BA831EB2BD61D3A43DF4
:20212000FF06F0BD67860C3D78D0F73A500DA93EB44641BD941EDE3D667CD0BD01851D3EE5
:2021400046F2FEBD1CC4F83DE96CC93C6677793E4E6EC4BC7D0EB5BCF24A20BECBEE283C1A
:20216000B14940BE99A4993D5275DFBC91F778BC3BC8963DCE8921BD8EF9863D88349D3D4B
:20218000C6D6983DDAACDE3DD74AA63DCF378BBCA38C083E501C3C3E2826D33C97AC67BCBE
:2021A000702798BAC0B0453C5142673DF272CDBC5427023E8BAB723EC4139EBB97659B3D7C
:2021C0006E9DBFBD35DAE23D41B757BDAFA2E13DC66CAA3DF998783E9EC1A5BD4E40803D63
:2021E000923855BDEFA2D83D772FB0BD08C8183E7866423D7A26C33D5A9AFDBD32E745BD5E
:20220000EFB6FEBDDD564B3C9A1369BEF7C3583CAAEA433D2705BEBC474F1E3C01AD3C3BB3
:20222000E915E9BCA9B3033E589A04BD3291153EC4BD1CBCC527BF3C9F48863DC011C43DD9
:20224000487D233BED27A9BDA0D4903DB42961BD3785AB3D0EAAF2BCC2C6AC3D2F52143E57
:20226000B0B486BCD991D9BC61789B3CD5DE983D20F2093C0DD9743DCCCAFE3D5CE2653DE2
:20228000A1D0B13ABEA6943DB7DB9FBCF5E7B53D9D82C0BD714E263E2ED3043DED7001BDD6
:2022A000C95084BC0CBAEABD69519BBD623482BD56ABBDBD86E3CFBC4A137DBD439FA53DA7
:2022C000B8A7003CB298B13CC0F50FBD2F434D3CAEE1BF38C4D6C63D5936F0BC60E48FBCC3
:2022E0002B8F9C3C71F8F8BC5272603D63B3D3BDB83D423DA65A61BDF64BCDBC2B9CDBBD6D
:20230000E7AB333D7980B23CFCBC02BC8D72983AE58383BC33DD493DDD8BD2BDC852833D7F
:20232000F724003E477DA23DC932DDBCCEC3173DC823FABDFE2B903D2E1C29BD42AFC13D71
:202340002208CE3D4A910CBD89656BBDE80083BC47F5ABBD38EB59BDF57C03BEBA2F67BD4B
:20236000FC97D43CDE690BBE564BC4BD26CC57BD78D5EFBDAA2B09BD21F3ECBD1B9B043D3A
:20238000CB97AABD03FFA8BC763FB63D0883ADBDB8B0923CBE1B1DBEE1EC4B3C4BCB82BDDE
:2023A0002DC1073D76141DBE6EAECA3D05F8AE3CAD5A14BDFB2ACA3C118120BD42ECD63DC9
:2023C000FF94103B18149E3DC050263E0260A13D3384393C5014073E615B72BDDFE8233E7C
:2023E000856200BDAC94DC3DDBC70E3EFDC25A3C7B2D943DC9BBD13B8B92B7BBF298063C39
:202400002FEA87BDE7978D3DF0503CBE9A87133D4D761A3D8E6F26BE7E91C03B01DC79BD54
:202420008AEDFFBB43D9C8BC50AE973C32FC38BDF40A573E54B68CBCAC00503D644746BE0A
:202440003C74983D1E84EBBDFEADCA3DBCFE10BECCB26D3EA1A525BD949DD03C5BE819BDCC
:202460005700553DA519493DC0B620BC0563013DEC89273EA73F72BCFA53063D9352AD3DEA
:202480006E75C23B494CCD3D6946FD3C3242BD3D5171B93D4B5B3FBD6C7F173D3BBAFBBC22
:2024A0007E4C1FBC3E90B63BAE0BA0BDC000503DCEFF02BEC7B1FC3D94D1873DFF35CBBD32
:2024C000B8D6C73DA171A2BC0C7E9C3DA5D185BD8802A8390F6595BD969D3F3E094BDBBD12
:2024E0003310853D02EE05BE625AD43CD37C42BD2D01A33DA34DAEBDC983713E9117FFBC43
:20250000A0AC313DA4F22A3D1464503D2F624F3D433B14BDB92ECD3CDCB4213EFF18DE3C83
:202520008339693D7126DB3BB2074EBDFEAE1A3D202437BB770DD23DEF4D423D83CA33BE03
:20254000A0394CBC2B4707BE5C5BB7BDDF805FBDA2D4BABDE9BCD13D3DA1ECBD7B39C0BC66
:20256000C97614BDA5FE2BBECFAA47BD339411BE7259C3BD24949DBDF0E981BD2244BEBD57
:20258000EAE9D53D373766BBF2920B3E1C3DA5BDC99BA63DADE5DCBD20EA7B3CF058DFBD28
:2025A000192F313EA5FDAE3C42D1AF3D18FC87BDC005F8BC0EF7F8BC169F173D3010D4BD75
:2025C0000C786F3E0FCC323BD8ADC43D1F7F3ABDD9F3BA3DC7ED48BDD2CC3BBCB751B4BDDD
:2025E000CAF2463EB42121BE9EA9553DCF4541BE2558BABC932125BE28A17CBDE556ABBDCC
:2026000058ED393D8571ABBD05631ABD573784BE2D7ED73C442047BE5DB138BC2D0538BE41
:202620000F8032BC0E38DFBDDA49EC3A646C1FBEC9D2A33C964F4EBDC031EEBC61DC8EBCB9
:20264000461365BDA176CA3D5A96043DF42A9EBCC499D9BDC428B0BCFABCEDBDF22EC03C71
:20266000137216BE3EE1C33D285678BDF172993DBFB202BE6ADB453DAA3A45BE1CE02D3DB1
:20268000BB480CBE373A033ED6F24ABC52CA043E4B90E1BD6D3CFB3D2ABF63BEE1092E3ED5
:2026A000D9A665BEA907053EFE5FFCBBA5389A3C20F9CB3DA4BAF13B02AD543D312D45BD73
:2026C00014F2E13CCC0B6CBD4A454E3DE39FEE3D82EE873D19A8F1BD0C19613D37AFA3BD64
:2026E00054FE11BD6ECC883CD7298ABC98B3263E5E97813D34E940BDEFA461BD89771B3DF1
:20270000F9AAB2BDF5E4FA3D493F8CBD0408423EF9F481BD20F6A03C84FCE4BC06D1EB3CFF
:20272000F0E89EBC760FE03D40D462BDC31F9F3D3AF826BD07CDBE3DDDA550BDC6D6FD3C8C
:2027400075FBCCBDD9B5EC3D8EBBA5BDB798F33DC3D7173E5DF1D63D044ACA3DB521933E53
:202760001FB2833D68AA853E1784A73D7660F73D3272C73DE1BB453E09FAB53D33ED88BD49
:20278000D65B533D71D4A0BD1864793D85339F3C7142E53D2541E83DFE9DC13CFBE4DFBD9E
:2027A0006CB7B53DB5C10FBD8D59D13DED3595BDFDE8093E03E9413DA23D893D77E97E3C05
:2027C000A2F9513DEC6B11BEBCAF033E0144DCBDB8ED0A3E7925DDBDBE0015BD3AB45EBD62
:2027E000C94BA0BAEC0D60BD5814E93C8330FEBD32BA033EE8262FBD62914E3DDA2DEEBC00
:2028000033B1823CD8FAB43D76DB873D9AFFA93C0E5B11BB87E275BD8EBF3EBCFCCFC63DDB
:20282000F770C53D4D8E6CBD847EFCBBDAC6A83C2616203DDF47B13CCEB2DF3C32F1313E15
:202840004ED5B23D394A8C3B1D98AD3DDA4A69BD658A083E94FDF2BCF8B5BA3D88B4A63DFC
:20286000BFE42F3B766947BCC720033D7FEE07BE963E073E5D81C1BD5CDEF33DED94B23CC2
:20288000CE3ED3BBD01BC63CA422ED3DA24E3BBE1D5F183E3D8BFDBD37B1823E52BA0ABE08
:2028A000C8780E3E002CE3BDE3753FBDE6200DBD0B9E8BBC0360DCBCA978AFBC265132BEBE
:2028C000B746E63C3C72B2BC7C412EBC03762BBD558575BDA4BFB03DD4E772BB39963E3E26
:2028E000661010BD4525AD3E8F34853CA429B43CD403553998F7053E73D634BDEF142A3E23
:20290000B66E2D3C783A653EE48C8BBCF02AC73DF78805BDC92C8D3D8B15C03D8EE4583D5C
:20292000BC64013EC282043E132B2A3D4EEF533DD3FD8E3DAFDC993C768C1D3E103D01BCDE
:202940005456143E3BD5A53DD586A4BD8818553D15867EBC9DA06A3D2CD4953C4CB1AF3D28
:20296000CB59513CB0BDF6BC10DEC03B8B3C9F3D2C22523CA974D23DCC18F73B2257E33D44
:202980005610EABC54092B3E4167BABD777BA73E83F7933C5BDDDE3D20226D3C8E80023E9A
:2029A000036B6CBD587F393EAC3947BD1CCE923E9353413DE4C6F03DA0BD2DBD4138C33D94
:2029C0000F31B83C003F0D3EE6B5373CB3D4703ED61E963C97F4243ED470E93CA220763C66
:2029E000F15A09BD1B2796BB770B763DD2D0FF3DC452E3BDF031043EA46D9E3BB564843E42
:202A0000C36AACBB1C868D3DC3E2033D877901BD1EA3AA3C30D719BDA106DCBC547656BC74
:202A2000E914313C0828F23BFA8DA2BCF192B3BDB6DF23BD8ED220BCF52ED3BC2E3E55BB18
:202A400020E170BDF67B07BD5DEE76BDAF4BBABD35F828BCD457D6BD836D933D96278FB990
:202A6000ED2E363D7DADF2BDB99600BD9BC550BE7D47873C5830DCBDD8AE503D6C937D3D01
:202A80001EB8193D338524BE0BEFA93D254728BE3D7761B98CB610BE121C0DBDA5814ABE3A
:202AA00039CF6A3C3219793D9BA3F4BCB4FF563D798BA4BBE019C8BD13BE38BDB4A6E2BD93
:202AC000B0EA5C3C4ADC0DBE560DE6BCE4633BBE1601B8BD10708DBEDC4FDBBDC2CB8DBE9C
:202AE000BA4AC43C1EE1EFBDD8789FBDDE733ABE476751BD89DEB2BE007B8ABD10EF97BE89
:202B0000BAD75B3CBB2B05BDC913CFBCFE0A82BEDB023BBDF2E5B9BED44318BD22CDB5BEC5
:202B2000173CE23DE9799D3DD7C9303D96C1E6BDB5D925BD3AA704BE6794D7BD5F9635BE56
:202B4000BFCD5BBE3386C0BC1B4F053E857B18BC8FDA6B3DA2BF143CB43C853DD8A8153ED3
:202B60007E7F88BC3E61803EB9A1A2BB22104CBE07B44D3C22FAA53D6EFEF6BD1F96963DDB
:202B80006464ECBD9264F23D9B55F2BB0CF613BE71304E3D827E99BC10432BBDCA48BEBCE7
:202BA0004150F4BD49B6023E8E3B8CBBD3B09BBA67FCA73DF5ED813D27D140BD9191253D4C
:202BC000496901BE4C16CC3D0E16233CB8F6BC3DB570943C99466D3DBDC754BDF98C083D12
:202BE0009E7A0ABE0AB5973D4934EB3DFAAEE83B7CA5023DECAA52BEA4CEBE3C96EA3ABE08
:202C0000E3FB263C6F975DBC54C199BD3C94913D67D4EDBBAC0625BE12904FBD9C6A9D3D46
:202C2000C71B12BD372F013D2C6501BEDD496D3DF4CBF2BDAB31E0BC7F52BC3DE1C6623D29
:202C40001C81203DAB99863CE50F50BDB6AD90BCC366C0BDF3A74F3DDE79933DC44166BCAA
:202C60006B06123CAD9443BC5E011DBEBF5D563C453F29BE9CAAFF3D10502DBD64019D3DF7
:202C8000B91801BEA01D0DBD3DE661BEB2F70BBB47F5BBBC06F74C3D97934E3D91DC1FBE34
:202CA0007273E2BB60D22DBBA23E90BD812B7BBCB4DEC6BDDFA3BB3DE63B123E7AB85FBE19
:202CC000E3FA823DA03D523DC8DAA8BC2A24003D7424DFBCDA5490BC08930E3D08171DBECE
:202CE000B334FE3DFCC2CFBC74A39E3D9ED7453B41FFDA3C0E09803D7B02FD3CCF6B75BC37
:202D000068701F3EF5D5173D2C5AAE3DC5FBB4BDFCF767BD28E386BD187394BDBEC3B93D06
:202D20005904C83D4146663D698EC9BC401037BD173E18BEA6A1D53BFD10943CB1DA823D9E
:202D40002C1F7A3D92E64DBE8AB280BBD809BE3CFA1D55BC60B51DBCC838BEBD68D0D03DC6
:202D6000229C373DCEBFE7BD6C40F03CF006843D2063F73CDB41833CA8D716BC339A193D5C
:202D8000FA1B8A3C817748BD3CF0B63D99A1513DF04DB03D5AC6CABBACDC6CBD11D1A03D35
:202DA0008802643D5742E6BC79994A3E1CB3033D2EB9013E1B9628BD3114C63D41425E3DE2
:202DC000BA7AC8BC6106A43DC8F3F13DB2BA383CDC6EE43D5AED3DBD4B03E63DA3433EBC2D
:202DE00015FEA3BD01F77DBDCAB7B03C967E5ABE27C55F3CFA80CEBDEDE1353D79F23BBD66
:202E0000E842CCBD31395E3C338F8E3D3CF5ADBD1573063DDCCA473D6E1BB53B3A9EA53DAB
:202E200092CD3BBC87CD333D504033BD2F1DFABC69B6633D0E4F243C0867F73A1A6C13BD84
:202E40001D65AFBDF1388FBDC73614BE19E12CBD5CEB913BE94D953C6FFF2E3D643008BE10
:202E6000A22EB8BD119D3BBD5E470DBECDA3173D44171F3CC57637BD57A49A3C79F5E3BD6F
:202E800007A5A0BCE02CA9BD871A5A3E6A6FB43DE45EA53D1BA787BD12F82A3D08AD9BBC0E
:202EA0009245203D0882C4BD58B573BD19AFE0BC324B193E8B6B9FBC9612913DF953303EDD
:202EC0005AE52F3DF987D13D556D59BDDB4A2A3E64B10DBC093C46BDEDBAC23D0A43D83D26
:202EE000AC3C773D6AAEE53D9EED6EBD0E160E3EDC76E2BD3F05CDBD0ED8353D1CCA783D24
:202F000009330F3D9290553DCAA0FCBD0EAC713D29BA2FBE8819AD3C39A4E8BC63AA26BD1F
:202F200012968B3CFF0C54BDF2A105BE0E56ABBD7F531C3D7052B0BD2BBF4BBC7FA8A93C8D
:202F4000F9F3CC3D7457B4BCA427083D297D803C744724BC94398C3DABD4ED3DB05160BED6
:202F60002DE9B13D2F9AF93D09D588BC7C90143E22FE10BD92ECD03DEE2793BC5AF659BE8B
:202F800022C96E3D16AD34BB44CE913D24801F3E699897BCD086D93D9331E5BD805B55BEF4
:202FA00072B1943CD80CDEBB5AB5693D11EEB93CC6DF3FBDFFF6B03DFE3435BE814A51BD77
:202FC000A119D23C6EE4173B255EF73C8012A03C741B24BD6ADF393D3960A73DEB3035BEA7
:202FE0008564023E58CF7F3D320A1E3EE848B83C22B2A63DF11725BC3F5B8EBC13499C3D50
:203000000165913D788F26BEFBCD803D64A5283D07E75E3C365CD33D5B3418BD39C8AE3D24
:2030200022BA59BDD4DF0EBEE9121ABB6F30EABCD6B830BCDEA9293D657CAFBD8EE7043E9F
:2030400019E175BEBF363DBE0783F1BDDF5DDA3C279A94BD22A69E3D9D71FDBDFEBA783CE0
:2030600073184FBEC96B893BFF7F19BDDE1F4EBCA1B70BBE450A95BD927F04BE0EBF5EBDE8
:20308000E69693BB6A4F7FBC58FD083E89C6303E5730023DE3CA9B3D6DDDC73D978006BDA7
:2030A000AC1F083ECA1821BEF198273E84B9253EF605EB393EB22F3EE7BE763DF7B0483DB0
:2030C0007E161C3E7AF406BE70FCCF3DAB105F3EF1DF3FBE63B3723EA3DA2C3DA8D9523D77
:2030E00035160F3E5A584FBE97BED23D24E97D3E20BD2EBE62C94A3E711647BD7885633DA9
:20310000D8AD9F3D187130BE10B740BDEE31433E842237BE385C813E61EA13BE0C08873D91
:20312000204B08BDB6CFCEBDE3F6DFBD93E29A3CA9CD0ABCD13A813EC2E197BDE6BEF73DBA
:2031400023FB67BD0EEE5FBCE6A98E3B795D47BE9196C43D26C5D23DFD7829BDFAD8D33B86
:2031600094AADD3CF4AC40BCE200C33D984360BE8A37153EEA488E3D93E323BE3EBAE13D03
:20318000553C80BDCE091CBD45E10A3E80F06BBE971F153ED948923D520B46BE3DA64D3DE3
:2031A00021F31CBE443C84BD264C0DBA01253ABEEE87DE3DC7E6183B1A9983BE999BC23C53
:2031C000CF7306BE6A944CBC00E293BD4FBCBDBD6E93E1BDE4779F3D44DA3CBE0A76363E4A
:2031E000C87818BE24920A3E89710EBEC9420B3CEF4EADBD3C4087BC59BBCDBCB79AADBCE6
:20320000C06FC0BDA9ED073CF897B5BBD2CEB33C791FCB3D5FF2C9BDFE0ECF3D15AE33BC5A
:2032200011860FBEFAC0BB3D28A190BCD0EBA23D0E623B3E03A6E6BD621A3A3EFDA781BDBE
:2032400091FBF3BDD84E123D8200FD3C67A1E03C2CEC0A3E636CC3BD6A650B3E3E6513BEA3
:2032600064C739BD5C364C3D09AD8B3D811D32BD5425093E0F39C3BD62E21B3DE97B823DC0
:203280002CDED9BDCF57A83C281D83BD1DAD133D367CFABCC32C733C81FAB43D79D4CDBD9C
:2032A0000EB1263D57A8A33C344BDDBD25909B3DAAB30DBDE2F1423DD4C32B3DC66A26BEDC
:2032C000281F1E3EE32E63BCD1832DBEAA11183EEFA2DCBCC60F2FBD30C29F3DABE700BEC3
:2032E0005F54EA3D5A4502BD097B84BEE54DF13DF86C05BEFC7D18BDF7C6AC3D809EB0BDCA
:20330000769CB73D27D963BC5D9866BE8CD5E93DC6EE25BE99ACF83B3A16BFBD4162443CEA
:20332000EE500E3D4DD404BDA46406BEE2AE193D7B6A00BD4BE534BDF5147CBC31A2ECBCF1
:20334000A2413EBD836284BDC643153DA25C843DAC880EBEE447A33DF50DDF3B3BC5EFBB7E
:203360000783B23DE8D66BBE7462023EB6F1C03DD39A58BED293EC3D9073A8BC8431BC3C0E
:20338000DBC10A3ECE4BC3BDF022823DD455E53C3C4E71BEE2F30F3EB91E43BDA14D55BDE3
:2033A000915FD43DD74C07BE00AEAE3CCB224F3CAADA44BEB821CB3D5BB0E2BD44EB34BDE3
:2033C00055E8603C5CA925BD7D8D4D3D1D0DB6BCCACF6DBD987F073E8ABD05BE4476B53D28
:2033E00009EADEBD1B67ED3DBDAF74BC08AAC33DDE69313E65E7BD3D4C9BA9BD8FDE9E3DB4
:203400002C65F03C0780483DBAB3CD3D056D02BE1841853EE843023EA89024BE009D6B3E53
:203420009EEA7B3B4D46903C11BAE53DD2FFD4BD864E883EE4FED83D98319DBDC356173E7E
:20344000D199EEBBB29CDA3C769F493EBE0E38BD2D54193E9DE6E93D19A10CBE3BC1413E18
:20346000B43A35BD3797113D677F3F3D02F09BBDDA3DDFBD9DA60EBCE2D26ABCDF3A743D40
:20348000BBF964BD819C7E3D2E27BDBC6188243E4704173BE3D5123EF2AD2F3E4423213CF1
:2034A0004557C03C0EC4A63DC020BCBC56E949BCE6DB673DEE54E7BD289D5C3EC2D16F3D3A
:2034C00076F732BEEDF9503E264136BD6484B4BC7C4A783D2E4D4BBE00070E3E4D327E3CDE
:2034E000968A48BE710C363EA45029BDA6AE233D6D04203EACB8C7BD12913E3D05BE42BD90
:203500001D782BBEA3C5213EA46ED7BD4669093DB698853DEFF64EBD6BCFD63D1CBAC6BD25
:2035200047BB2BBEC6CE123DC76D6ABEC034E4BDDCB83FBE7C85C1BDF3EC23BEFE7BE5BDE1
:203540003BADF83DF37E46BE942EA7BDE54616BE7BDE16BEA18104BECA76BCBD6AAE68BEAC
:203560002535823EA08EDBBDEA4249BEE78B453D9AB4C3BD7507B1BD36CAA93DC1C79CBEC4
:203580000218443EA67B4BBC4CD611BE481AB63CED7D52BC0CDE01BE4F2A6B3E061D93BE6B
:2035A00073CB0F3E57C3D7BC48A30DBE7D29123EC85CC3BC7305A1BBFF70183E7C9A2CBEEB
:2035C000D3056A3D338611BEA09DBC38C58BA7BD607029BD6748F23DFDBC0F3DE342173EEC
:2035E000054D953D2ED48C3ED8571E3DD80B333DD40B70BD2D900F3DE1CD233B1983F73C0E
:203600007D081EBD2F40023E1ED9923C4D83A63DE3DD9E3C9D5435BB9A33283C9D79FB3C2A
:20362000C8357CBDAFF5553DCDFE60BDF406E13D64B4A7BDBAF645BD6EB3BDBC6DCDCBBC95
:20364000D586053CF034183DAC308BBDC94DB33D9871D2BD0BBC103D0999CBBD19BE6C3DD5
:20366000AB221DBE11960ABC2118663DD6046F3C3736C03C301396BDAD7EF2BC35B97D3C55
:2036800024610DBD04544C3CDF0DB2BD11E52C3EB73FDDBC3B2CB2BCC40A2A3CF7FEAEBB4A
:2036A000FC0A2C3DBE37B6BDB6A82D3CBA3688BCAE60CF3D731FB03DACE2043E458B83BDBF
:2036C0000F8A1D3EB27A15BEB90EFE3D0D8885BD19ADF03DF4C4953B96BA1F3EBF420DBE2A
:2036E0008B5C4F3EB242C8BD9ED8563E4CBFF8BD41CABD3D814FCDB958FA5B3DAF7822BCC9
:2037000033F0D93D2DEB02BEA214833D4458D6BD0DF52D3EEABB063CB706323DBEB664BEDD
:203720007E04CEBDAB1208BEED9840BDFFFC80BD5C31CDBD9509ACBC1AC2553BB0A551BC54
:203740001BF21E3D0801093CA64A273D471C9CBC39FC423CE3BC0E3D33AF193EE651CE3D8C
:203760005B5F333E6CC460BCE6C6653D5031173C70D9B43D6B27093EE0C76E3EAF080D3E48
:203780003261123E80DA293DBB03533E1CD6AF3D3144F43DE32BFA3D98A00F3EDAA9093E1F
:2037A000A75C7B3EEE21F03DF3F4693EB7FBCB3D83D86B3EFADC413E374B493D3F823CBEAD
:2037C00040E0CBBC56446EBE5EDD43BD27132DBE9C07FA3BFE24CCBDA51F88BDD8C961BDD1
:2037E0006CF8183D59223CBD263CB5BD5C87AE3C647F19BEE2468C3C572331BE7EB0FF3D7E
:203800005B67EABC2544873DAFE23CBDA7EBDE3B6B1A13BE5F72B33DE07692BE45AEEF3D02
:20382000570FA2BC7234163E730CA3BDB04386BBDE0792BE1ED10C3C88BAAABEB45BBC3D99
:203840007B6E01BE0172063EECBF64BE2D60B33C9114ACBEAC350B3DF4D199BE6B05C73DF8
:20386000CF55AF3D65456DBC4352483D2791AA3C5946E53D51CDCE3D3854E93D8A9E5E3D4E
:20388000DC8F543C40803E3DF6EFDE3DF990B3BD005CCABB74B219BC8527C73BA3895039BA
:2038A000E24280BD1B642DBD31E3153D8679B0BD9FC482BDD26587BD89B4AABD5AA120BED2
:2038C000DAFF3CBE5FBE16BE554D90BD01C31EBD6A0935BEA5DE0ABEDD616ABEF7655DBE08
:2038E000EDAA53BEB199E0BDEB1235BDDAEEB63BDAAC82BE5A2D05BE9E1AA4BEFBF7E8BDD0
:2039000072F09DBE6517C6BDB72FA5BDE56F66BDF3AC6C3C61E75A3E4ECC27BD0CEB2B3EA7
:20392000780835BD6A48923D6B12153D7F78F63D4527B43D5080D8BD33A9DA3D1FBA463D8A
:20394000B3BA333D942CAEBCF6639D3D5A1F0CBCB193E33DF61694BD4BD8053EFD812CBE5D
:20396000692BF73DF4BDDBBD6FD21A3ECB8BA6BD74BBEA3C7330AABDAFFDE53C0FD07ABEA1
:20398000CAFA313E2BF260BE63BB3B3E772428BEA34797BCAA4F27BE9E2E203DEDCA17BED1
:2039A000A89F483DE55751BE17F4513CACAE4FBEF7085E3DCE1D9C3CB39A0EBE91B3BF3C3C
:2039C000669DE8BDAEF73ABD7BDB05BEFB4CE8BCD33C06BE5B79B5BC2E85B13C5FFD4E3D00
:2039E00052FC573D7B4D753DA63C2E3DB935B0BB52543A3D595FBD3DDA6AA63D82FC4C3DC8
:203A00001869FF3DB5FDC5BCC14A573EF022F6BC9A9E833E3A78A03D7A72D33D20E1203E6F
:203A20008D3A373E36C7DC3B675A633E16A706BC61F09F3ED594C33D6AE71F3D7CEA2A3E43
:203A40002B94343E91EF853D1D48823E1216CF3C7553943EDEC6893D0ADA513D043F863D1F
:203A6000BCA3923CE4133DBDB15D253D0491313C810EE13BBD3A55BDF944F2BDCDD3BFBCFB
:203A800016D97EBD21B0943D53164ABD040BECB951E1D8BCDE5131BB9B3209BEC7070FBD27
:203AA0005F99F5BC7B12443D8ED9A7BDB982C1BAAF2DCCBD4430A4BC03AFE8BDF7418A3D3F
:203AC00019F212BEF52D133DB724E6BDA691173D8790C9BD4843373DFD8D00BD4229493EBB
:203AE000BE042BBEC3711E3A91EB16BE11878E3C5A6E21BE9C18BFBCE5D29EBD9E86393E5A
:203B000017866EBEEA6BE63C78C036BC87E1C9BD8525F83BAAF4BBBB08B1473DE854C6BD60
:203B2000E4BF75BD0EFDDDBD1BCB283D9CF725BDE79FFBBDB5A87F3DC08337BE4F53EF3DEE
:203B4000FECE88BEB879423D30B90E3DCB9996BCACFBB7BC36D9E83D27481DBE2D910D3E18
:203B6000F43067BE22E01B3DD807193DBB2E5FBC3CB3893D870F0D3E05FEFBBC36D6F93DD7
:203B80002EBC39BE4924CF3DDC99143D983AFEBDF072D93D540515BD011A9D3D55262ABB80
:203BA000589A043C5A7F2EBD69AFCF3DAE1B65BD5C0C3D3DE75140BD8668C63DB200C5BDC4
:203BC000C4EF4D3D6D5E76BDC0D628BD493459BD49D9AE3D08C0C1BCB4C10D3D319008BD05
:203BE0009ABFF5BD540B82BC605424BE45B72EBCE0CEC7BC006DDABD1A8B393D0929AE3D34
:203C000090B9D7BDE61284BC17E82CBE284B623C0972C6BB45B476BDD2ADF13DC716F2BB36
:203C2000D2F69F3CFAE780BC46A727BE2546A63C372EC0BD16861ABD5B543A3D398E2A3CFD
:203C400033216F3D358DA0BC70DDAEBD1EDAC0BD1E1DA83BA9BCA3BD2B04783DDF2605BE8A
:203C60008B87023E43A801BE2C0C4B3D63CDFABD3A1EBA3B8C183BBE526AA43DFC4291BC8F
:203C80001260133D1850C3BCEBD1B7BD0F0CD4BD70CB13BD8D141CBE8A56043D52CAD33CCD
:203CA000E33DA43D1F87383B711BD5BD617C68BD954C09BED8C2F4BD83666BBD79E328BD85
:203CC0004AF61C3E5A977A3D68C0C33C54785B3C6AB919BE76D4F6BD654E69BDF89AA63CD4
:203CE00065D6203E92BBD1BC1B6C363C8AAE86BD3014D7BD483CF9BDE4768A3D794EC53DE1
:203D0000A3FC1D3EFA83013E627F4F3EAB74E03D1494683EAEACCE3DD7C4363E8D21D03DC6
:203D2000E02B823E3EE485BB88030F3ECFA30F3D944B80BC8F768D3D3C35AFBC5E1529BCA2
:203D40008CFCAF3DAB420DBD5A13B43DFE81A03D15BB86BDF2F2B33DCCE854BE8D8EA3BC57
:203D60002B91AEBCD743E2BDA132AD3D5C04D53D8A323EBD7347593D50062FBEC13509BD2F
:203D8000C362EEBD2AE80CBE51323A3DFE5FC8BC9EF71EBD4AB6F9BB9022E5BD1FE3BBBCAB
:203DA000BB32793B0267C5BDB52A3D3DE73C343DF585543DC2C3903DE823EF3C4F4F7D3D9F
:203DC000C4526F3CBB76303E3B339D3DFDC62ABC0D59653D840BC33D4AF2A03BFE09413C60
:203DE000173A34BCD35A14BD6861AB3DA68EF13C4CEABE3D23C98B3D3C00CCBD15D1DE3DC7
:203E00003A58BBBDCC1527BC06DA663C1B0954BD9A2B023EFEAFAB3D5B822C3DF55C173D98
:203E2000E8D2F2BD24A512BD040E7BBDA5C7C1BC79C4323EA3D10EBD9650EB3D387130BDBE
:203E40003C18EEBB9735A4BDA5FFD13DD62E483E196CD43D52B3A63D47DC2E3E5A9E123DA8
:203E6000DC26DF3D27BBD23BBEC8FD3D4A437ABCA02B543E3AF6B5BD64B6463D0FD58B3C6B
:203E800042C3DDBC6FFFC03CC2E655BCDFD19D3C7CE5203E0C6DAFBD7B41C83C6CE6023DE3
:203EA000107A82BD776AF73C8C43F8BDD2A8443D666F7BBC0ED11BBD3791E83DC18D833DE8
:203EC000D010653CB9F39A3BA4D335BDD93880BD6EDEADBD897AC1BC8EF81E3EE48E88BD5A
:203EE000A033D83D03EBE7BBF1FC9EBCE9F88DBC06D1F9BC0F320C3DC7615B3E573A593DDB
:203F0000968E2E3E2775313DDB765E3E6F55D93D2BFDFE3D8275E03D695F1D3E9DA95ABD49
:203F2000BD78C53DBF65DD3BB97A7D3B0C31443D25A12ABDB26EC33D2143B73D2D5A1BBDE1
:203F4000C28B123C2B48A83DE84ABCBCFF27F13D6782C9BDD139D33C47F8A3BD686C5ABD5E
:203F6000290CBF3DADF4973DE0D7CC3C0240A63DE7C8C63B7351713BCDCBC7BD9724C6BD3D
:203F800096C6823B54B958BC1C19FA3C473E6EBDCAD093BDBF8CB0BD109032BE4B94D1BD2D
:203FA000CEF2823E5C743C3E6BF23E3E22F3CF3D67680E3EED37E33D75E9833D146F0C3EF3
:203FC00056AB523E1647EF3B18696B3D26DFC13D9595AABC044AD33D474F6C3DCCA6CF3DF2
:203FE00083BC0E3E70FCEEBD726C8D3D280BEB3DA462BFBCB91F833D5B109B3C43293E3DDA
:204000005E6E003E4E1B2EBEDB76363E78E08A3CC603F13D35E0843D0E1D853C4104DCBCC8
:20402000DCE7863C625A07BEF8383F3EB9778FBDC861013EFA2D66BD51995A3DFE6FF9BDFB
:20404000265FB1BC2E08F7BDEF5701BEF6FBDF3D2D1700BE6947A03DF15FEEBDBFBBAABB09
:20406000B237ACBD41C13A3D96EA813BCA3ADF3E0C9FD73C71B6343E8726D0B9648BD33D8C
:204080000D1BCBBC2AB4C3B9254DD03D5C16E33E195E3BBE2771B03DD8AE16BE1BA752BBE7
:2040A00000C1BFBDEB9919BEEC061E3ECF7BB83E6A8226BE81119B3D6F7836BE7D3096BDC5
:2040C0000F5BF2BD05582EBEC2B5303E14B2473E910E17BE88A991BD705F36BE5B4DF6BD3D
:2040E000989515BE3C8816BE72AE103C1E144F3D9F0423BE5BD1453D76F13CBE8DD7003EC9
:20410000278120BE226D913CA9F805BE67EC333DC771263DE37D393EA8DDA7BDC132D63D35
:2041200096CF9DBDED548A3D2CB4ADBD6C6C933DDF770F3D8996683E1C4629BEA0BEBD3DBE
:20414000976CE5BDC286DB3DDD7D523D6D51923D08D5E73D795C413ED49934BEB01C883D9F
:20416000DD04A0BD62BE30BD7D01A9BB104E2CBD076C203EE3FD553D65D2FDBDDE1C71BA72
:2041800000AFF0BC3B9C25BDA391C93D2CCD813C19481CBECF23333ED0AA90BD16CD22BEF3
:2041A000735DBEBC3DF8A5BD156AFEBD3ED885BDE0DB52BDDD5811BE8442CD3DB062CD3DD2
:2041C00099C832BCE113173DD0BCAABB7647933CD1E5583CB9DC403DC9F6343ECF5FBB3D18
:2041E000E80D96BD117EA83DE0E450BBB83B693D83BB583DB275533D997CAD3E2A70E83D52
:204200001601DBBC8F986B3D0FB20E3D62F5E63D811E6B3DAEE1C23D652C893EEDFCDA3C6F
:20422000F2D44CBD806DACBC4322C03D52D590BBB6A62B3E00A6213D0115CABDDA0B223EDB
:20424000BFA9EDBD16DE35BE100AD2BD46620CBEB25DC0BD88C4F8BCDBE08BBC033C0EBEB1
:204260006DF5A53D21BD853D733500BD60884A3CD91741BDC927ACBDF9F5BCBC3176E8BD8E
:20428000BC5A103E6194273EB27FACBD034BC03D2A17C03B6D5A0B3D9631DD3D8DC0BCBD89
:2042A00036115E3E81653C3E90691EBC6F72903C4FA320BCB4ACAFBC3BED093E674FF83C49
:2042C000BD5B833E66ED263EF07D71BDBDF69E3D3475B0BB2D4994BC1DD0C83DC0E43ABDBE
:2042E00008AAC0BDD123103EC1A9E23AE7C243BCA7120F3C56200C3E9FCA15BC095C423E3C
:20430000D564043D6AA9163E4D31A33D3063BB3D6D12A03D2598D83D64FC383ED28919BD9E
:204320009939493E8B6554BE514E2A3EB6B4353ED1E2B5BD8BFFD93CE6B06E3D712AF1BCF1
:20434000442B423D156E2BBE8024F73DB5E4293E535927BE6999913CF061B2BD3C9B8FBDE8
:204360005337E5BCFE50E0BD550CEEBC9CEB313EEE5C92BE61034C3C610F35BE6398C0BDC5
:20438000F41BF6BD0B55BDBD8982CE3DAEFFD5BDE800813D23641ABED8ADE73DDA23543DF0
:2043A000B2B7043EB97D363E35AE403E8FB58D3EBEF21B3EAFE6853D92A9003EDFF581BD4D
:2043C00038B26B3EEF1EC8BD66797C3E284448BE4743423EA5CDA33CD5EA2ABBBA85333C00
:2043E000173D9A3DED99C9BDBF4DE63D05A583BE535B8E3D8E69AD3DDC84DCBDA0FA09BCBA
:20440000672701BE24104CBE270640BD291F98BEC75C7F3C5C8FB43A7FCFA0BECB1608BD40
:20442000637690BEC1046CBEC8EF80BE5BB98ABEB2472CBD083B583DDE3DE3BDF83656BE5E
:20444000BE8CDEBDFF50CFBC2DD302BE69C3E33DB588ECBCBCB8043EDD03873D756C9EBD16
:204460004E37153D588694BC0083493D4D1BE6BD7EFB393E3E0116BE872E1D3E5ACF683C43
:20448000EC3D9ABD0B94983DD943683CC47ADFBC0B1DF73DF71BEEBD33B82D3EA1A0563D4C
:2044A00013CB34BEB1D9983D33002FBEDDD249BC63DB78BD2FA093BC397EDE3D3A4516BC45
:2044C00091FB8ABE57A8B8BBB3E484BEB916A5BBC4009CBEECBE8BBCFCD4FDBCD2DF22BE65
:2044E00013D714BE1DF087BE534F24BE6B7137BE0C9841BEB5860DBB29D2E5BDBC42F4BC68
:20450000FBC22D3C95A6023DF78F6EBD17E8F13C40A8293D614A053D4EF3C63D9896A0BD14
:20452000E1664F3E6F2F0E3EE9311EBE64D1B73D2AFDD5BDB8368C3D92DBA7BC94EC28BCFA
:20454000475D3E3ED6711C3E5A033ABEA6F3463CA52027BE2CFE193D611E0CBE7DE5CCBDCC
:204560000C85583D6C0D093D487D8CBE529F5FBBCF1C9ABE1DDB7CBD61715FBEDB938FBD1F
:2045800085DC4ABE2FC180BDCAF19FBC9A93863EE1252DBD1426863E72B75EBD2EE7EF3D0B
:2045A0006665E23C3307CDBD688788BCDA088F3D18E6753C1B8F5CBDCDC1273BA16038BE14
:2045C00093029A3D9D69DEBE442C0D3D9B0AC43DB20612BBEC16C93D5995C83C6346E2BDA6
:2045E00018C4A23DEA3F60BED621383D69B3343E1C0A963D8515433E6F26403B0D4D8B3B7B
:20460000925611BDB813B7BDF137D83CEE29483E5FF8DA3C90E17E3E970EE03DA033263E39
:204620002833963D87E5D33D7B4AFBBD955200BD4AD5FE3C48F1DD3EBFA58B3B7392573E3E
:20464000FF5D8DBC159D033DC2E8C6BD049A00BE400F8DBD40659EBC2065EFBD814E0ABEDA
:20466000EE5B2BBD50E690BE037133BD31C6DDBEDBAB5ABB19BFD3BC94D6ADBD149CA2BCAB
:20468000AD006EBDDEFE0CBEC10ABBBD0F8948BEAAAFF13DD7EC17BD612D233D9363BC3DC0
:2046A0002A28C9BDAE9C263BBF03D3BD5A2EC6BD7BDE343EC2F0BEBC6E0EF53DCCFA303E41
:2046C000B36970BC838A873D6A7E82BDAE248F3D88A308BE44BF833D3B050A3CD152803EE1
:2046E000775301BD19AB803E40A0A03CBF77123E1F80A6BC4302E8BDD796CE3B759BAF3A14
:20470000A70DD0BC10DA1DBE3A0262BC07B832BE21D2863D2FEE8FBE7BEDAC3D268F0ABD9E
:20472000CD959D3CB47BD5BCD79F3BBB42EF9CBBF2DF88BD40E608BEE586E03C520C203D46
:204740004448083CDB539D3DA12288BC5BD7083E798617BEF9F4243C02C0B13DD064903A33
:204760005646DDBC818B813E31D42ABD06425C3EE256E9BD749C1D3EA0C825BB2E7A0BBD6A
:2047800054EC373DC54E183E5544183D27513A3E2B5AEDBCFA6B063E3A93803D9EDFCA3C3A
:2047A00054C6893D614941BD7B92B8BB9A3836BE49E120BDF46F5FBEBF0BA0BBB6B39BBEBD
:2047C000B9B25C3D7894E33C0F7351BD057F9FBDF12284BD815FAFBDA9DFC4BD0A3877BD1B
:2047E0004EE491BC24ABD8BB7F3094BDAE3B0C3D95F642BDBD8BB7BCA9A0A4BD71030FBC78
:2048000067D97B3BC1F7AA3DE0B75BBCC3CB4E3E436330BD63C00A3E6EBDDBBCFD4FC63D2C
:20482000B07E8E3C58908BBD4C0C70BB673C0D3EDC58903D0AA3423E7AF0A93C8F2FC43DA3
:204840005C364C3D6C4C60BCC558583DDC09DFBB69FF44BD11A8B6BDD211853B1D4A66BE75
:20486000EC9A1CBD2DC762BE1D1AA0BDA267D43D8D86A9BD087A3D3DDFBDB5BD7A02F3BC69
:20488000D359B7BD2EF0AFBC601419BE929E353DDD32C4BC6AE21C3E584BBDBC8277143D67
:2048A000C5DECF3B179B143BD76EDEBD5141023DCEA987BD3804053EF9675FBC1A92853C77
:2048C000A766F8BC482FB83C8058D7BC29B681BD68D3043C1EDA113E440C983D9E91323E9E
:2048E00007DF9D3D95EC093EE1D2CDBB7983D33C60D8C13CDD3A0BBD00A2D93CFE8BCBBD0E
:204900009B4969BDA21D36BE5153A23A2F9294BEFA57563CB60A733D66B691BC9E4C683DFC
:20492000D07B14BCC410E7BCA861953C3792A4BB8E51D4BD462D8C3DD6DBE6BD02B4093EE6
:20494000908E83BB2E37FA3C40CF3A3D251A2CBC23A8E8BD473FF63D5FCD28BD0F674C3E79
:20496000C4D6A2BD2117893D82D5CD3B2C32703D1673743ED018213DC0B8C23DA8C1E93D4F
:204980002BAB053DCF1F623EC6B88A3D131C0A3E586EF43BAC270C3D96FD9F3D210B293CA4
:2049A000BFD643BB2A33F2BD0A112DBD8F15FBBD752F6A3D060B67BE94782E3C163D6C3D04
:2049C00061B2A0BC6713F13DB49A5D3DF78C84BD49A9843D53795BBDF15D40BDCEBFC03DA8
:2049E000DA29BF3C73AB553E5290093D1D8D673CBFDE953DA526853C38028DBD7F128F3DB7
:204A00005F040EBCB0512F3E278763BBED6CC23DD06E343EEF8CD83C058F78BDA772C0BD39
:204A2000E32FD03CC3B7453D377A8F3D7FA8033E370AA33C5D64A03D64409F3B6E015F3D30
:204A4000333B923DF856BF3CD169883B312797BD1988253D9CC6ABBDED4889BD91212BBE44
:204A60005CAE493C3A56333DD032573CA995D73C625E573D61E49DBD5BB7BD3D870D3BBD36
:204A8000607C84BD480A893DD924003DB2B1AA3D82851A3EF375F3BB9CE6493E2E02E3BD0F
:204AA000D20103BC496DBD3CDA6CEF3CF2B2033ED5D91F3E541B483DECCF843E594726BC61
:204AC00086B4E93DDC128DBD00FB313B58ABAE3DE93A89BD6549F83D2C83CA3AF3BA363EC9
:204AE0007BC06BBDD489443EC9F63EBD93A0513EEDFBD83DBFFFB63D4349CC3D2ACFBF3CC1
:204B0000066E2A3E08CA173DC521C9BB4D922C3EC375A43DEBD325BCC5665C3DD904B5BD15
:204B20005C99C43D550C73BDBDF1EF3C1911103E51ADBC3DBC0F79BDE6CF033DD91EFFBDFD
:204B4000C0A6D03DFA372EBDE43BE73D59298CBDD5D9113E202DF1BD6053A63D6D750EBE7C
:204B60001DA7703D633608BE60FA5EBDBF07A23D110F723C685F70BBA6779F3C04CAE33DA5
:204B800025498E3C3950BF3D1CB3A53DC1E3483D18BDF5BC06547F3E856845BD7E28A43C6C
:204BA000B16A09BD5BFD06BDEE7512BD8D8FE43BBF53CB3B96D9273E71CBCEBD01176EBD96
:204BC000C768CEBD7FE05ABC531047BE3A1A06BC415E99BD9DC7063E1F3D29BDD836FABD84
:204BE00067DCE1BDC0E52FBDB20631BEB4CF3C3C5AA71B3D69EC913DAC2B9ABCB4B595BD3D
:204C00005602C9BD6E7AC0BDBAD682BD6E1982BD9B797B3D7CD719BE2B80043E056C67BE43
:204C20002C8ACF3DA2CA263B80A0C43DDD5280BCFAC23E3D2B384FBDB738A6BC2ED0443EE2
:204C400041A2B1BDBC99AE3DAFE87FBD146AD33C76D8023C111C273D7254ED3BA666933E7B
:204C6000EE3517BEB346AB3D9E0222BE21CB853DC5BB01BE4910A43DB0595ABD5526643E77
:204C80000DE409BE3FD5EF3C30B645BE3410BE3D786C35BEE28C0D3EA631C5BD03EF403E9C
:204CA000F05B73BE1DD7C13DF25470BE33ED2C3D575221BEDE03573DFCF0CF3CD690B23C41
:204CC0002FE396BC1DA419BDD31ACE3CA5F14D3D39D2283D6C981A3EC745D83A0176D53D4F
:204CE0005098A43DADA1013EA935443D22406B3BCB12853D12883A3AC15BD13DBA745E3D57
:204D00001029413C7370B33D55CCB53C6680C03AAEC9263E249D22BDD7817C3E58639E3CF6
:204D2000BAE47C3DAF63DFBB6E7A563DB13267BDC0FE2F3EBED384BDD87A8F3E9153D4BC5E
:204D40009452ED3DA88BC7BD3C35CE3D32D507BEC9D9033E43C0BDBDAC06913E14277ABDF1
:204D6000FC830BBD223D4BBEAAEB4CBE708F093AB9D0C7BDDB63023E875F6BBD67A28D3D37
:204D80002F7801BA8B886F3D888C963D53F4863D8F4996BCFFB3013B84CD843D509987BAAD
:204DA0000B42063EF2737CBDCBF4063E6EFD883D3B81C83D35459BBD4F40623E3D9817BE25
:204DC0009AC4943E57037CBD07D8633ECDB451BD7F141E3EDC4614BE0CA8933E6E22EEBD5E
:204DE000B324D53E2748B3BD945E8D3E028B0BBE4E40873E7290FCBD2A8DB73E8D3C60BD37
:204E0000FF4DE33E355A75BDB2C96EBEFC84ABBD8B945EBE2B6312BEAE63D9BDE62717BEB3
:204E20005A41F7BDBEA737BE263CFFBD28638BBDAB1EB1BD4E5563BD0BEF68BD8F9962BD78
:204E4000B07730BDB5830CBE3D37D2BDD879FABD8761ABBD064A583C789801BE31B811BE76
:204E600016E5B3BD23E331BD64A143BE6EFC90BDED6984BC8DD302BC73608FBB94A740BD0D
:204E8000514668BCA98050BD44925DBC06C8233D0BB0583D9F001DBD364C813DB1C99D3CA8
:204EA0006F36313DAD75BC3D79DF373D96D3E43D0A6303BCE190F8BC2E270CBC7D5418BE59
:204EC0006A5CA63DEBB028BEC91DB13D77D5ECBD289DBB3DA80A2CBE3D56233CF024BB3D88
:204EE00021FD523D60CB93BD948D4BBCE8CCA7BB5D7D5B3C9AE087BD6CF6573C27F5083EC6
:204F0000C577213C818181BD218029BEDE3F86BBA1218CBEE041803D82365B3CD577523DBE
:204F200003A9E0BDF577403D259F22BEA47698BA18A191BE63DDCD3D6EBAA63CC6631E3E4E
:204F4000636DBEBC9364BD3DC81F27BE234F183E369CA7BE33EB363EFE4BFABD0E2F02BEBC
:204F60001903A3BCB034B3BD3E45B3BC1C5014BD3ED1843C0C56DFBC838A0F3D8840D33C37
:204F8000512880BDF96C023D87F06F3D7DF7E1BD9B4BBD3CD37B8BBD558BDC3B33EA90BAAF
:204FA000296FF43CB209A73DB36DFF3C1C050EBE4E4B433C2DCC7DBD9BDE21BE764C573C4A
:204FC00001E4953D1F46D03D9852FBBB0DD2B8BD631324BE14B321BDC52D97BEFC49E73D07
:204FE000BFB9143E057BBB3C68CB70BD768FC8BC5D1254BE9BE8D03C1A43B3BECC376C3DFD
:20500000A242D03DF7D8943DA961D63A975BE3BC0B16913D261AC9BC5478C83DA3162EBC2C
:20502000DF33DC3D4DE6B43C3FAF1A3DDBE140BD46AC6A3D1259B1BDADF605BD7A921FBE64
:205040001024ACBC70C41ABD5A3E2F3C6A61ADBBD1C621BD635FA2BD90282ABD1C8F08BECD
:20506000B0D345395DC21ABEE955ECBC39221D3D75D138BCFB50D2BD8CEC09BC607D6FBE42
:2050800044009E3CED442ABE50BAF3BD4AF1FA3DF24AADBDC9F41E3DA56468BDDD89C5BDD9
:2050A00051B93DBDD5D429BE5EB5A13D170E0BBE4B9258BD67D21ABDA5A383BDB8CB083D2B
:2050C0005E0BD13CC996EEBB6A8D3E3D43BDC93D01911A3D7477AEBB878679BC33BA5E3DD3
:2050E000FB9BB8BC3F94B9BC8EF8283D3787613DB83E01BD5316FC3C42FD3F3B7376BB3B2A
:20510000DF14A13D32E16FBD5B982A3DAFD416BD6ACFDFBCFAE6A73D5365783C6C7D03BD22
:20512000CBDCB43DF98CFABDD683A93D3A5009BE757D2FBDA0091C3E330D3BBD5010CBBB0C
:205140004C24363DA6A324BE2B8C0D3C34D534BECFFA553DFF230ABBAC1FE9BDA8D2413E9A
:2051600002AAF8BD8390333EA6A068BDF4B9833D9A6744BD87870E3EDA893F3D1844463D58
:205180008513083D3BA6183E16548A3D2E6C4A3E61024A3D6ECF473E3C19D43D2C71B03D0C
:2051A00000DF3E3D76CE463DB677173E8CA4AD3D8CC7143EA2D50D3E3BD6193EC8C7273D70
:2051C000686E033E1F96B03C91111E3E0D48983DA71B393E52834F3DCEA40B3E2CD9763DE2
:2051E00078F60B3E584547BDC18B423EFE104BBD279D643EC5F80E3C4AA5B4BDA597F3BDBC
:20520000B063C5BDD371AFBCB66324BD94EB4C3C39A3BFBD512FFEBD28433ABD22BB653DD5
:20522000F6D7BF3CD9C719BD9F4E993CA8DD343D7A4482BCAF53403E31FE01BACD66833E1E
:20524000AF9E033DDFC011BC9BDCC53AF5BB0C3E12D0CC3CDCB33D3E4CAF193C82C7873E93
:2052600072DAB13DDF7AC13DBFC8DB3C6712AD3DDF8EAD3D1E893C3EF818A93C61A87C3E6C
:2052800011D65A3D6A89AB3D9CF70E3E2B1D8B3D787FBB3D66532D3DE509123DE542C93D4A
:2052A000B9F13EBCBA2B37BCCBB29E3CADF9BBBDE0213A3D48813ABEBE2DAF3AA9FB0ABE84
:2052C000745928BBDBF8E7BD6A23A6BDD296A7BDE4C7E5BC203E723DCB1E97BD7C885A3DBA
:2052E000C9A64ABEA52F593E98DE07BDE822E0BCAB8B80BD7221623DA1B172BE4621E03D41
:20530000275782BE0DCB2C3E076EEABD024DA33D906204BE7BCCC93D0B1F80BE00B9B63D2D
:20532000C22E53BEF9ED1A3EDC220EBEAD0BAB3D91AC68BE81A9443D809F50BEB493DE3D27
:20534000AFB49BBEE64B1B3EF4D7343D6825813D5905E03DE18090BDA5FEE93D6A9C83BD48
:20536000727F0D3D909904BE0CFC69BC69C3BEBD9D3D8D3D0EE5E5BD4CFAAFBD8D6968BD2D
:20538000EB0217BEB409413C1CE1D1BD314BA83CF63ECDBC81CE48BD7C3FD4BD35AF553D53
:2053A000DEF94ABEE2FD68BCF0602ABEB794703D226CF0BD1E96D6BBD07B25BE9E9BA93C0F
:2053C000DEA593BE3C4A823DEEEC7DBE6E49F63D0BC25CBEF3BDA03D690A65BEB000BF3DFF
:2053E000FCC8B1BEFBD2B43DAD86DCBEE1FDC43D58C0893CCD3B04BEC35520BC5A9A043E3F
:205400005003943DFC7C5E3D492518BCF1094DBD44CC913C99FE553C6762513CB51683BDA9
:20542000B7BFF23B7B81C5BC846B06BDD8BB21BD3582EBBB201B03BDCA55F03C3D9D79BD76
:20544000886895BCB58AF4BD5B8B8F39EB903BBE959CB9BC1C191EBE062626BD7A5145BC67
:205460009986EE3A455265BE0CEB6FBD35931FBE259B64BD723CBFBD31B8A9BD623660BD54
:20548000F0A9DDBD952B11BE5A32DCBD7F563EBE5CA392BD3B2B11BE2A36B73D30850EBDFD
:2054A0002AAD30BE92DCE73D80C087BCC960473DA7B29BBDFC8301BD3D3DA5BD5E39223DA5
:2054C0001A491F3DFD7269BCC28CEF3DA60DC8BD00780A3E2634B2BDE026003E531A10BEBF
:2054E000092C9D3D4CFF9BBB344A523EE670B8BDA777543E169949BE43734E3E42D926BE7C
:20550000FECA303E3AF1523C5832953E0E0030BEF4E5AD3EC345E3BD96F39B3EC8741ABE61
:20552000B947EE3D10B2C93D41A38E3EDC42C4BC531FA73EC6DAA9BCE488B93E27CFDABDDE
:20554000C2C2C53CD9780D3DF7D609BED31DD53DC1ECE5BDAD1E4A3E2A5863BED5F74B3EFB
:20556000442D7ABE7512663E714B71BD4B87F33C673097BD1164883DBDDA9BBD0415B63D4C
:20558000792E11BE5EFAB93A977C10BD290A2EBC3B3B21BD5AF613BDA1D1433DBA4E97BD8B
:2055A0001B4E033D961A72BD249E8CBC91AAD93BD24957BC4C4C17BDF2B52F3DBA5F2BBD5C
:2055C000790E6C3DFA6300BD9FABC4BD2FE0993CA647083BD4556D3C664CAA3DFAA1EC3878
:2055E00086A1C83DB13B8DBDB30C27BE2EF8183D39426C3CDFAD6FBD242A42BD20C9C33D19
:20560000AACD1FBED46B823EC3D43EBEF434863E595F05BB996342BD137E8ABCDB2BA73D84
:20562000151EC2BD84F56E3D768F0FBE1D6880BB9D409D3D756ABC3C413027BD5688F2BC93
:205640007CEA89BD89058EBC63593EBC2093B8BD634D723D4C54273DCB0DB9BB5E84D5BBC7
:20566000F35F8E3D90E2273D0846753D562DBFBD19A3C6BCD3181B3E98929CBC5682213EFD
:20568000B44B1FBB79C2883D8F88243ED39F133B7A7DC13C10CC30BE39DB80BD6D05F9BDC1
:2056A00029604CBC98C0243C98BFEBBDD9FC5B3EF72FF3BD7E995F3E1FEA97BCCADD943CD7
:2056C0000AEDDE3CC018A23D54E995BD2599753C2D87BCBD5927883DDD200A3DE769803C42
:2056E000006B8D3DC5B6673C27FD563D0E80893C302C3ABCBA81ECBCE04CDFBC2B5FCBBB41
:20570000066D303D80AD8E3DE4B1CE3C6D5901BA373D5E3D961811BDF96D2EBDE205193D78
:2057200022715D3D3AFCE73DB938093E6C9B013BD1B8243E7661AF3D8F3CE0BC70FB863D24
:20574000F39ED0BC4ECBC6BD137C83BD6ACDE43D92AA02BDF0825A3E9B9ADABDF316713EE0
:20576000F9F06CBDCEC20C3DEE12083BCA750D3D9719D7BD4811DA3C7F1E43BD2A68E8BBED
:2057800031FA95BCF34489BD1BEA97BC7ADCEFBCA5F7133DB6F5363B69421C3DA320CBBD60
:2057A000A5BCA1BD8234B1BC947A743C663328BC9EF9B43D74D0F1BB62CB163E7ADF85BD38
:2057C000B69028BE5367993D46B39B3D692803BCD78CEB3DFDD8133D7A30483E37D2C9BB7F
:2057E00012BAA03DF6E0BFBCAAFE893C79F4D03B894A1C3D4294203E09B15BBCB4B3A93E4B
:2058000069AACEBDB133B83E48148FBA14A79CBD222426BDE866043D156764BC5E68C23D3E
:20582000D350CEBBB5385E3D62F7B23DBC5802BE9ED19E3D4E5D4B3C20886E3D2081193D52
:205840007E8FC33D5937A7BDEB56B23D756811BD5544443E8C73513DF9AE213E5C83F53CAE
:20586000AC3C383EB4D279BD535FA83B3BFB1CBDC9D5773D9693933D8B87F83D0032043D65
:2058800093E3873E970178BD2A4B923DD95F093E918D5ABDB6FFB7BD6AC85EBD2D0EE33D37
:2058A000DF47EEBDADB6BA3E1E7D30BEFE18AE3E891F20BE0D6F02BC66CC86BD38A3B33D31
:2058C0006FD419BDA15EBC3D7220B6BDF1E2EB3D896A71BDC0D612BD2329CE3DDF12C23BEC
:2058E00084AFB43D74A3893DA147933DBB323FBD5959093DD8F407BD841F113E7C3D9B3DFB
:20590000817D193E523B593D1D0A813EA282A1BD98528ABCB839153CDCFB3F3EDC111D3D9A
:2059200008F0473E4166C7BC30AF873EC311803CD2C14B3EF89BA73DA19D8B3CBC06F3BD82
:2059400039E40A3CF08F123E1BCFC9BD0263BC3E7A499CBD33E0C43E79D4A8BC8B3E92BB4E
:205960000A49D6BD0B239A3DA0AB9DBD5CBDB03BF618CEBDE98B463D6C5CBB3C462E40BBD5
:205980009CD37F3C1E66453D051B50BBBE3F243D2156743DFD5FB1BC25782DBDEBC0F33CFC
:2059A000A8C9A93D0774CD3D5871883DF48837BD7CE43E3D60CDF8BD01DEE4BDD074C7BC09
:2059C000371040BD9AA5913DD1AE8F3D7611E0BCD1F7093ED9B28ABDE9A2DD3CA50AC3BC55
:2059E000416450BDC31885BE9E2C91BC93A0043D45FCDDBB26F9583EB7DDAABD9384953ED9
:205A00001B578CB99CABC2BD6E49CFBD48F21D3CC9D9F2BDFB09563CDD1F97BD794027BD5F
:205A20002C97343D5925BABDA69C123D55C1F3BCC6EF903D43BBA8BD144D6C3DC83A90BDA9
:205A40003609CCBBBDA6DEBC0671D63DC30E463CB194663DBA03C23BC04D0B3E87AD63BD5A
:205A6000C49B11BE2E7D29BCF9FF1FBD0563503CAA97A73C3028B0BD5435253E876CF1BC2B
:205A8000D0799ABCE617773C877E77BDE130D13CE4338CBD1111DFBD3143C83D56652BBE25
:205AA0000A001F3E544E0CBE914A93BDCC6AD3BCF00E8EBC337E1ABD5CE3933D59D682BDD6
:205AC00085DE943D469A89BDC5B45EBCBF5688BDB76214BCC9967F3B976A12BCEF27923DC9
:205AE0004C514BBC6D09093D6211F13C325932BEBDE3233DAF7DB4BD64DE55BD402FECBC23
:205B0000736FB8BC496772BBBFC09D3DFBC569BE5E26623D4E38F9BD617B573D95CBBFBD67
:205B20008E73143DE22EB5BDC0ECFD3D77D8A8BDBE9FB8BDFC11A43ED640313DA9F0AC3D30
:205B4000E270253E644DC5BD09E84B3E0FDC28BD437F1CBDCB33F63D0A86A13C3F9B56BCEE
:205B6000CF96B33D9FEEAA3D6B11093EBBC09B3D1869B73DD2597B3DA645AC3DEFDCA6BCED
:205B80005BC78F3D86ACC53DA1D2183EEFF49E3D4E2F723D6560E6BDDBF8F53C7934D7BD83
:205BA000FDB0CB3CD49E523C4179D03DEF61533DFA523B3EACA855BEC791613DCECC01BE0F
:205BC000B6DB6F3D71969DBCB9193E3E54C130BCDD5E2E3ED680FF3D747987BD37AAAB3EA5
:205BE0003EC6023B0184AE3DD444C63D781AFBBD1AB5B13C2479EEBD1593363DBC072E3E41
:205C0000663E943DE417A93C5BF2CF3D429F5E3AC482933CFFA5A63DA282163E2000343DB8
:205C2000A49A083E22A341BDD2CE0C3E38BF993D7A74393E6D05F23DF5F62C3EB7DE4DBD6C
:205C40009051003E04709CBDE37EBD3DFCB13CBD5EABFD3DBA73AF3C4054603E7BED56BE4E
:205C60005CC4553E14BF39BE516C203E056F01BE49347F3E564ECDBD742E2FBC228DDF3C9A
:205C8000E38FDEBDC5CBF63D2F2F91BD471D95BD0D9753BD639C16BE0B1CA53CB83FF4BD9B
:205CA000C90172BDABA0383E17E3793CCCE5BD3DE93E5B399D0FC83DEC660EBD9470B13D55
:205CC00080EBE1BD0CD7253EC53B543D4DD6173DA362BF3BDAC6BBBBD31E003CA1B47C3D1D
:205CE0003C880DBD4EA4843DEBF0F73C8969BEBCC2FBE03C2DEF7DBD3579353DF194973D41
:205D00002FEDE33DC4AEB5BB0AC4CA3D042597BDFF2CFF3D361642BDC0EA283E00294CBD1F
:205D20005839DA3C8993ACBD4E8BC83B5DABBB3DA442563C7BFAABBD28BAA43D40AF77BE1F
:205D4000F224603DD6096ABEDD62FEBD2454A33E323256BC1F39803DB4F213BDF5E51ABB86
:205D600024799DBCDCABFB3DE3E313BD2319A13E6A9D983D0290843D50F7953C874D9CBC4A
:205D800063AD833CBAB6283D6126FBBC13173B3E22CC6C3D7AF551BD8948EA3BAF428DBD39
:205DA0001B1F4FBD41E7C13D75A2A73DBCDEE3BB575DE63C309C33BD041E8F3C001AC2BD2C
:205DC00013CD583D022E60BC0B91B53C2C84A7BDC6FADDBC92D1A73E31509DBDCED5FD3D08
:205DE000058A75BD082328BCD6BA13BBDD045B3B912542BE7E89BC3EE495D3BCDEDEB63D90
:205E00005CCE84BD7AB9AA3D087207BEE5CA0A3E243D04BEB470973E441F32BCC1F77B3DEA
:205E20009E56B6BDF3E910BC262D44BE41C0543D92A850BDFC2D043EF2814FBDB7BF75BD93
:205E4000E0B0A3BDAE97093D1CF500BE99AD563DBE694A3C5CEC003D892288BCCC6A82BD89
:205E6000A40DF9BD3BC8FABCA2A51CBE668F4EBDF6B28B3DC4802FBD5D8F36BE0135D63E17
:205E8000283FC6BDE07BBF3DA938AFBDF678D5BDD015AABDD9BF7FBDE03567BE740B7A3EE3
:205EA000D1783FBD35C0053D2FC62ABD73AA323C862B79BD7E8EA93CD447E4BD50B3943E96
:205EC000771D35BDDF33283C38A09FBD0954B1BD73B40FBE970D8ABC5468203A5121C73D5D
:205EE000D218D8BCC35AB2BDD8D7E1BD3185CDBD4E875CBEC1F144BC49B6B63DFD2D04BD8D
:205F00009BE5EF3CECD9D6BD79E6D43BFA1ABEBDE19427BE050CFFBCCEF8F63DC7503E3DD0
:205F2000319A803D5B7C833E1D0E583D19FFFBBDC3302F3E50DE56BE0773943DA56677BE84
:205F4000D83E36BDB24B383E0C3962BD4BDC8DBCC20E10BD0B72A6BD13C044BD9D2A6DBDAF
:205F6000483308BEB7DA0C3E8CD5C4BD3779A2BD72F722BEBF44B2BD8FAC3BBEDBE187BD25
:205F8000382944BECCF4493E695327BEC0AAEFBD9EB984BE8412B3BD0E3BACBEC11B89BD2C
:205FA0004DE140BE0C5F003E2ECD23BE830429BD863F84BE8577B63A9DA1B9BEE12A173DBC
:205FC00003B92CBD08D744BD4DAE2EBDCF1AE53CCBFAE2BCC9D6103D0632F0BC8405E93A6D
:205FE000F1BADD3D582AD0BDABCD9DBD4DD6893E7B56C4BD4938523D40C3EEBDC084FDBD03
:206000009E263DBD2165E0BD66F8B6BDE0ED663E1372FEBD4E885F3CF81B5A3D264CB33DA0
:2060200027AB913D6B3776BC886F94BD7E5A6E3EC8EDAFBD3F7F8B3C484F943DA1E7D13B7E
:20604000AA3FEB3D5D68193DA9AD83BDC908363D1DDF833CD082B0BC5319243E13255FBD9F
:20606000BBA4933EE82C053DE01377BD3FC4AB3B51CC09BCE0EA0FBD68B8D13C37BB29BD0D
:20608000E2327F3D2BA6973BC53BDD3D87FF4BBE79AC98BD280F053E66D626BE5F9D80BD97
:2060A00094F292BD7DBAE7BD9E7610BDBE9312BE4C2921BEAD001D3EFB94A0BDCA6EB83CBA
:2060C000BE198E3BB291B43B9FE98B3D6EE8CCBC6084F1BDE804223EBDB0ACBD4FA2E93BF7
:2060E0009699BBBB630DD7BBD18AD63DE8F09F3C3B376FBD8C2DBA3BDF41543DB0950ABDCF
:2061000034C5D33DCAA0363C84A7813E1490373D85B328BD09DE94BDDBC9523B5E4A953D98
:206120007B2AA7BCCAF3403DD53756BCDD151CBAF333233E77F605BE20ED13BE0386013EDA
:20614000B50E54BEBD4158BD4C3198BD63570ABD5C3D7EBDD744F4BD192712BE2492D93D88
:20616000014201BEC25E033CD086213CCC43913D620DF63DB306433D350109BE5A0E843D2D
:20618000329CBCBDB33C2EBD19AF9E3C6E78F63C35B63C3EC156593D74E608BEC14F9ABD8B
:2061A00045E900BC21538CBD39E3D43DED5F0D3BFF64873EC7B2153DFE62893D625F203E3F
:2061C0002286933DD912E13DD197C03D4214003E70BC883D1F67893DFBDD0D3E004918BDC7
:2061E00039B80FBE03AD443E4091A4BD4FB2CCBDAA5431BDCE75B7BD1CD269BA4C314FBDB6
:20620000823D7FBEA08CE03D2C4021BEE869BA3A7B91B43CD7E4CE3C348E1E3EC4F0BB3D1E
:20622000EBF560BE403C143EE9FFC4BD766DD23C45ED0F3DC1F69E3DE02FE53D9E90943DF8
:20624000BC436DBEB217C83A3A0B95BDFC8C5EBDFABEC33DC6EFABBC9119643E5BF8493C17
:2062600015E4D3BD7E7035BDCDD5093D2EB66E3D101A7F3DEBE9C43D5573203E0BDD8F3CAA
:206280005A31543E87F5AABD58D3A0BDEC0E7C3D973145BE6FEE07BE85B802BDF649D0BD0E
:2062A0004F5218BDDF4927BE570E3FBE227B793DBE8AF0BD39FAC9BD7455BF3D255D06BDEE
:2062C000CB9FAD3DF181733D226988BEF9571DBB7F8B40BE20646A3B910F4C3D98745D3D4F
:2062E00074790E3E0632BA3B0F8F81BEA6F7B3BCA7E2E0BD8E10F6BDB128EB3DF2E85CBDE4
:20630000AE6D5E3ECB30083C1F39833ED7EB92B9182D7C3D27E6C53DE818CB3D8E902C3DC5
:2063200068BFF53D1419E03BCC93E33DE164ABBDBC6FCBBD221A893D378CFABD2D0F0DBE5A
:20634000FC4ABBBD5960BBBDD107203D6A2EEABD03883CBEACC3E43C57A810BEBD37D8BD70
:20636000EFEF30BC6143A3BC2891013E12EECD3C8BA973BEAB18ED3BE24FE5BD373BB8BD45
:20638000DD79BC3D234B78BC8160F93D22ABE8BC427585BEC8202FBE989695BD8165A0BDF2
:2063A000A827AE3D405C36BD6454443E721B4BBC401A86BC526AA23D7672E83CACB6C73D1D
:2063C00039FB013DE085BE3D6ACF183DF51FE13DEFF99B3D8A64923D649D15BE51B9EB3DA8
:2063E000467010BE546456BDACF892BD05FAAEBDA94A53BDBD411ABE963114BEB72FAD3DAF
:20640000667DBDBD760348BD9B7DAD3DCA7AE63C51E0BE3DECFC40BC8B3E31BE755513BDD7
:20642000AAD5B9BD6EA0A9BD8365113E3A76B3BCDAEF463E2A90183D9980BEBDDCD1D6BD6D
:20644000CDEC493D73C510BE6B2D7F3E1E07DBBB93E7BB3E989C823CF7BDB43DE2A6133E04
:20646000BC64153EF6D23BBAD4C8883A34365CBC9508943B7711BFBB7E28AE3DCFCA19BD9E
:2064800071625DBEF1D6023E053E4FBEFFFF1DBB92B0DBBD9EDD3F3C6BB23EBD52B579BDBC
:2064A000338DA3BE8E27F83D0F1472BE5E8C27BD6D3B27BC44F0893DBF780E3EA6AC103D09
:2064C000D332AABE6CD7D13D617E8CBE798646BD6277F7BC5C093DBD3A24B33D969E7DBC2D
:2064E000CE3BC1BE276B9DBD28707ABE90AE58BD36651B3CB2458EBD26A1263E0648A8BDF3
:2065000060EC9F3D82375C3D3051083E2305843E2EE5043E9978263EC6F5013E5C7F053E6E
:206520005A2E263E638DE53D64B8E63CB4DED5BDEEC676BD2B3900BDFADCC4BD119D583D59
:20654000BA7DFBBD5088DABBDF61A63DEED420BE95E3E43CC893E13B14D48ABD0645653DF1
:2065600080D16FBE9D31B13D083D083D5B3026BEF0B7253EC53F4DBC2C463F3C2FD8B73CEA
:20658000046CDFBDA6FD8E3D6746153D9977E2BDDBA35A3E96558ABD86386E3E95269EBD0B
:2065A000F9C6433E95554D3CE0F509BEE7B9E3BDF3A7BC3D642B393EC083163D72721B3EE0
:2065C000CC3CAB3D7F98903D8381C83D36F9C43D79D8913DEA8E57BE65532DBC12A184BD6D
:2065E0000E0581BCFE92353D9AF4E4BDCF942EBDD469B9BC9EEC3CBEBCCBA13D5290FDBC96
:20660000AB7E83BDAA25CA3C4C7B4CBE688E983A2E036FBC529737BE665EF83DF72ABE3C55
:206620002A32413D950330BDD3E494BD48D607BD047B243D08FE04BE6AEB7A3E019307BD04
:20664000ECCD5F3E7DFE35BD5474EF3D08C081BDDAE10ABD6F011B3CBB24ED3D6226343E31
:206660007B62613D6AB2EB3D259DF23DEF307E3DA26ECF3D8B3F963DA7EB423D34C274BE9E
:20668000959ED43A1044533DE129763CA73D13BDC2EC47BDF8C00EBCE0F0C3BC2FF34EBEB4
:2066A0005A15653D7EF7CD3D28C0DCBA5B53A73CC9063DBEB05E603D607775BD46F1DDBDEC
:2066C00065D7F13D7874503D1CAE323C06DE9D3D8E2DFDBD063D9A3D920A93BCB14606BEAC
:2066E00069C8EA3D63F9FF3C6ACD573D0E0ED93C0AE99CBBBD5341BCC09EA03DB328293DDC
:20670000CE3A9E3D056300BD6BA0103ECE228D3C643BC53D4729BC3D5E03A63D22AEAD3D57
:20672000B7433E3D955F70BE1226BC3DEB9B00BD2E4284BCD850373D12536ABCE18896BCBC
:20674000500AB83DC5E698BE2A1B223D6DEDBF3C5184A1BD5872A93D4F4009BEFDC5503D68
:20676000AAC2C13CF91362BEDF93903CDE3C023EC4EAF7BBA453E73D314FDDBD0F54993C1F
:2067800029B7C7BC4F8042BEC835B73D56C7A83C65C2B63C343361BC80230BBDCA14B03D02
:2067A000886491BC3B9E02BEDB22883CCB0B09BEA986FF3C23A413BE1B7A843DCB8EADBD8E
:2067C000DD83733D00ED4D3D94EBE33DE8BFBABEF3D1793DE4B1AFBDED26D53C3255083D09
:2067E000095D64BD8F2617BDD26C593D980C91BEC1E0BC3BA46A563CFF683FBD724FE43D45
:206800004E01CBBD14A9693D1B25AE3A9B229DBE1171113C383A3C3DEA8B03BDB4DAA73D9D
:2068200088B5DDBDC5A1D33B46C3A73DDCCC7DBE1A2E333ED326B6BD8BAEF13CD51CC83BBE
:206840005CF63E3DCAD4FABC8498C93D75A552BCD4E2823DA296C3BE12C9B23D44E586BE68
:20686000900DD93DAA1F47BEAF86D83C776F0ABE13CC643DA14C5DBE7097383D36C4BABC2C
:206880003A5D693C20F8E63D1310A43C33BCA13D0E7F8A3D90FF79BEDBE8693D90CAF43DA3
:2068A000D5CFDCBC90882D3E94D257BDB98D9F3D5B1AE4BC272257BEA749DEBB6BB4F43D31
:2068C00064D685BDC0BD203E85852BBEA827A3BCC35F7F3D94A90BBEEECAC33D229CC53CE5
:2068E000228DA93D5A1F593CDADA72BD095D54BBD71C853C463EF53B5FB9AE3D8632DDBEDF
:206900004303993CA0CC53BEFB7435BBCF45A4BD0694E53C8CF884BDAEFF523D49ED24BE37
